{
  "_format": "hh-sol-artifact-1",
  "contractName": "ZombieMint",
  "sourceName": "contracts/zombieContract.sol",
  "abi": [
    {
      "inputs": [
        {
          "internalType": "string",
          "name": "_name",
          "type": "string"
        },
        {
          "internalType": "string",
          "name": "_symbol",
          "type": "string"
        }
      ],
      "stateMutability": "nonpayable",
      "type": "constructor"
    },
    {
      "anonymous": false,
      "inputs": [
        {
          "indexed": true,
          "internalType": "address",
          "name": "owner",
          "type": "address"
        },
        {
          "indexed": true,
          "internalType": "address",
          "name": "approved",
          "type": "address"
        },
        {
          "indexed": true,
          "internalType": "uint256",
          "name": "tokenId",
          "type": "uint256"
        }
      ],
      "name": "Approval",
      "type": "event"
    },
    {
      "anonymous": false,
      "inputs": [
        {
          "indexed": true,
          "internalType": "address",
          "name": "owner",
          "type": "address"
        },
        {
          "indexed": true,
          "internalType": "address",
          "name": "operator",
          "type": "address"
        },
        {
          "indexed": false,
          "internalType": "bool",
          "name": "approved",
          "type": "bool"
        }
      ],
      "name": "ApprovalForAll",
      "type": "event"
    },
    {
      "anonymous": false,
      "inputs": [
        {
          "indexed": true,
          "internalType": "address",
          "name": "previousOwner",
          "type": "address"
        },
        {
          "indexed": true,
          "internalType": "address",
          "name": "newOwner",
          "type": "address"
        }
      ],
      "name": "OwnershipTransferred",
      "type": "event"
    },
    {
      "anonymous": false,
      "inputs": [
        {
          "indexed": true,
          "internalType": "address",
          "name": "from",
          "type": "address"
        },
        {
          "indexed": true,
          "internalType": "address",
          "name": "to",
          "type": "address"
        },
        {
          "indexed": true,
          "internalType": "uint256",
          "name": "tokenId",
          "type": "uint256"
        }
      ],
      "name": "Transfer",
      "type": "event"
    },
    {
      "anonymous": false,
      "inputs": [
        {
          "indexed": false,
          "internalType": "uint256",
          "name": "id",
          "type": "uint256"
        },
        {
          "indexed": false,
          "internalType": "uint256",
          "name": "randNum",
          "type": "uint256"
        }
      ],
      "name": "minted",
      "type": "event"
    },
    {
      "anonymous": false,
      "inputs": [
        {
          "indexed": false,
          "internalType": "address",
          "name": "user",
          "type": "address"
        }
      ],
      "name": "payedFee",
      "type": "event"
    },
    {
      "inputs": [
        {
          "internalType": "address",
          "name": "_add",
          "type": "address"
        },
        {
          "internalType": "uint256",
          "name": "_rand",
          "type": "uint256"
        }
      ],
      "name": "_minting",
      "outputs": [],
      "stateMutability": "nonpayable",
      "type": "function"
    },
    {
      "inputs": [
        {
          "internalType": "address",
          "name": "to",
          "type": "address"
        },
        {
          "internalType": "uint256",
          "name": "tokenId",
          "type": "uint256"
        }
      ],
      "name": "approve",
      "outputs": [],
      "stateMutability": "nonpayable",
      "type": "function"
    },
    {
      "inputs": [
        {
          "internalType": "address",
          "name": "owner",
          "type": "address"
        }
      ],
      "name": "balanceOf",
      "outputs": [
        {
          "internalType": "uint256",
          "name": "",
          "type": "uint256"
        }
      ],
      "stateMutability": "view",
      "type": "function"
    },
    {
      "inputs": [
        {
          "internalType": "uint256",
          "name": "tokenId",
          "type": "uint256"
        }
      ],
      "name": "getApproved",
      "outputs": [
        {
          "internalType": "address",
          "name": "",
          "type": "address"
        }
      ],
      "stateMutability": "view",
      "type": "function"
    },
    {
      "inputs": [],
      "name": "getIds",
      "outputs": [
        {
          "internalType": "uint256[]",
          "name": "",
          "type": "uint256[]"
        }
      ],
      "stateMutability": "view",
      "type": "function"
    },
    {
      "inputs": [],
      "name": "getStr",
      "outputs": [
        {
          "internalType": "uint256[]",
          "name": "",
          "type": "uint256[]"
        }
      ],
      "stateMutability": "view",
      "type": "function"
    },
    {
      "inputs": [
        {
          "internalType": "address",
          "name": "",
          "type": "address"
        }
      ],
      "name": "howMany",
      "outputs": [
        {
          "internalType": "uint256",
          "name": "",
          "type": "uint256"
        }
      ],
      "stateMutability": "view",
      "type": "function"
    },
    {
      "inputs": [
        {
          "internalType": "uint256",
          "name": "",
          "type": "uint256"
        }
      ],
      "name": "idOwner",
      "outputs": [
        {
          "internalType": "address",
          "name": "",
          "type": "address"
        }
      ],
      "stateMutability": "view",
      "type": "function"
    },
    {
      "inputs": [
        {
          "internalType": "address",
          "name": "owner",
          "type": "address"
        },
        {
          "internalType": "address",
          "name": "operator",
          "type": "address"
        }
      ],
      "name": "isApprovedForAll",
      "outputs": [
        {
          "internalType": "bool",
          "name": "",
          "type": "bool"
        }
      ],
      "stateMutability": "view",
      "type": "function"
    },
    {
      "inputs": [
        {
          "internalType": "address",
          "name": "",
          "type": "address"
        }
      ],
      "name": "mintStatus",
      "outputs": [
        {
          "internalType": "bool",
          "name": "",
          "type": "bool"
        }
      ],
      "stateMutability": "view",
      "type": "function"
    },
    {
      "inputs": [],
      "name": "name",
      "outputs": [
        {
          "internalType": "string",
          "name": "",
          "type": "string"
        }
      ],
      "stateMutability": "view",
      "type": "function"
    },
    {
      "inputs": [],
      "name": "owner",
      "outputs": [
        {
          "internalType": "address",
          "name": "",
          "type": "address"
        }
      ],
      "stateMutability": "view",
      "type": "function"
    },
    {
      "inputs": [
        {
          "internalType": "uint256",
          "name": "tokenId",
          "type": "uint256"
        }
      ],
      "name": "ownerOf",
      "outputs": [
        {
          "internalType": "address",
          "name": "",
          "type": "address"
        }
      ],
      "stateMutability": "view",
      "type": "function"
    },
    {
      "inputs": [],
      "name": "payForNft",
      "outputs": [],
      "stateMutability": "payable",
      "type": "function"
    },
    {
      "inputs": [],
      "name": "renounceOwnership",
      "outputs": [],
      "stateMutability": "nonpayable",
      "type": "function"
    },
    {
      "inputs": [
        {
          "internalType": "address",
          "name": "from",
          "type": "address"
        },
        {
          "internalType": "address",
          "name": "to",
          "type": "address"
        },
        {
          "internalType": "uint256",
          "name": "tokenId",
          "type": "uint256"
        }
      ],
      "name": "safeTransferFrom",
      "outputs": [],
      "stateMutability": "nonpayable",
      "type": "function"
    },
    {
      "inputs": [
        {
          "internalType": "address",
          "name": "from",
          "type": "address"
        },
        {
          "internalType": "address",
          "name": "to",
          "type": "address"
        },
        {
          "internalType": "uint256",
          "name": "tokenId",
          "type": "uint256"
        },
        {
          "internalType": "bytes",
          "name": "data",
          "type": "bytes"
        }
      ],
      "name": "safeTransferFrom",
      "outputs": [],
      "stateMutability": "nonpayable",
      "type": "function"
    },
    {
      "inputs": [
        {
          "internalType": "address",
          "name": "operator",
          "type": "address"
        },
        {
          "internalType": "bool",
          "name": "approved",
          "type": "bool"
        }
      ],
      "name": "setApprovalForAll",
      "outputs": [],
      "stateMutability": "nonpayable",
      "type": "function"
    },
    {
      "inputs": [
        {
          "internalType": "address",
          "name": "_add",
          "type": "address"
        }
      ],
      "name": "setOracleAddress",
      "outputs": [],
      "stateMutability": "nonpayable",
      "type": "function"
    },
    {
      "inputs": [
        {
          "internalType": "bytes4",
          "name": "interfaceId",
          "type": "bytes4"
        }
      ],
      "name": "supportsInterface",
      "outputs": [
        {
          "internalType": "bool",
          "name": "",
          "type": "bool"
        }
      ],
      "stateMutability": "view",
      "type": "function"
    },
    {
      "inputs": [],
      "name": "symbol",
      "outputs": [
        {
          "internalType": "string",
          "name": "",
          "type": "string"
        }
      ],
      "stateMutability": "view",
      "type": "function"
    },
    {
      "inputs": [
        {
          "internalType": "uint256",
          "name": "tokenId",
          "type": "uint256"
        }
      ],
      "name": "tokenURI",
      "outputs": [
        {
          "internalType": "string",
          "name": "",
          "type": "string"
        }
      ],
      "stateMutability": "view",
      "type": "function"
    },
    {
      "inputs": [
        {
          "internalType": "address",
          "name": "from",
          "type": "address"
        },
        {
          "internalType": "address",
          "name": "to",
          "type": "address"
        },
        {
          "internalType": "uint256",
          "name": "tokenId",
          "type": "uint256"
        }
      ],
      "name": "transferFrom",
      "outputs": [],
      "stateMutability": "nonpayable",
      "type": "function"
    },
    {
      "inputs": [
        {
          "internalType": "address",
          "name": "newOwner",
          "type": "address"
        }
      ],
      "name": "transferOwnership",
      "outputs": [],
      "stateMutability": "nonpayable",
      "type": "function"
    }
  ],
  "bytecode": "0x60806040526000600c553480156200001657600080fd5b50604051620039793803806200397983398181016040528101906200003c9190620003b3565b81816200005e620000526200009a60201b60201c565b620000a260201b60201c565b81600190805190602001906200007692919062000166565b5080600290805190602001906200008f92919062000166565b50505050506200049d565b600033905090565b60008060009054906101000a900473ffffffffffffffffffffffffffffffffffffffff169050816000806101000a81548173ffffffffffffffffffffffffffffffffffffffff021916908373ffffffffffffffffffffffffffffffffffffffff1602179055508173ffffffffffffffffffffffffffffffffffffffff168173ffffffffffffffffffffffffffffffffffffffff167f8be0079c531659141344cd1fd0a4f28419497f9722a3daafe3b4186f6b6457e060405160405180910390a35050565b828054620001749062000467565b90600052602060002090601f016020900481019282620001985760008555620001e4565b82601f10620001b357805160ff1916838001178555620001e4565b82800160010185558215620001e4579182015b82811115620001e3578251825591602001919060010190620001c6565b5b509050620001f39190620001f7565b5090565b5b8082111562000212576000816000905550600101620001f8565b5090565b6000604051905090565b600080fd5b600080fd5b600080fd5b600080fd5b6000601f19601f8301169050919050565b7f4e487b7100000000000000000000000000000000000000000000000000000000600052604160045260246000fd5b6200027f8262000234565b810181811067ffffffffffffffff82111715620002a157620002a062000245565b5b80604052505050565b6000620002b662000216565b9050620002c4828262000274565b919050565b600067ffffffffffffffff821115620002e757620002e662000245565b5b620002f28262000234565b9050602081019050919050565b60005b838110156200031f57808201518184015260208101905062000302565b838111156200032f576000848401525b50505050565b60006200034c6200034684620002c9565b620002aa565b9050828152602081018484840111156200036b576200036a6200022f565b5b62000378848285620002ff565b509392505050565b600082601f8301126200039857620003976200022a565b5b8151620003aa84826020860162000335565b91505092915050565b60008060408385031215620003cd57620003cc62000220565b5b600083015167ffffffffffffffff811115620003ee57620003ed62000225565b5b620003fc8582860162000380565b925050602083015167ffffffffffffffff81111562000420576200041f62000225565b5b6200042e8582860162000380565b9150509250929050565b7f4e487b7100000000000000000000000000000000000000000000000000000000600052602260045260246000fd5b600060028204905060018216806200048057607f821691505b6020821081141562000497576200049662000438565b5b50919050565b6134cc80620004ad6000396000f3fe60806040526004361061014b5760003560e01c806370a08231116100b6578063b88d4fde1161006f578063b88d4fde14610481578063b8c9e4ed146104aa578063bf3fd6ce146104d5578063c87b56dd14610512578063e985e9c51461054f578063f2fde38b1461058c5761014b565b806370a0823114610385578063715018a6146103c25780638da5cb5b146103d957806395d89b4114610404578063a0f2a3661461042f578063a22cb465146104585761014b565b80632b105663116101085780632b1056631461028457806342842e0e146102af5780634c69c00f146102d8578063602977ad146103015780636352211e1461033e578063638235f71461037b5761014b565b806301ffc9a71461015057806306fdde031461018d578063081812fc146101b8578063095ea7b3146101f55780630deab8101461021e57806323b872dd1461025b575b600080fd5b34801561015c57600080fd5b5061017760048036038101906101729190612381565b6105b5565b60405161018491906123c9565b60405180910390f35b34801561019957600080fd5b506101a2610697565b6040516101af919061247d565b60405180910390f35b3480156101c457600080fd5b506101df60048036038101906101da91906124d5565b610729565b6040516101ec9190612543565b60405180910390f35b34801561020157600080fd5b5061021c6004803603810190610217919061258a565b61076f565b005b34801561022a57600080fd5b50610245600480360381019061024091906125ca565b610887565b60405161025291906123c9565b60405180910390f35b34801561026757600080fd5b50610282600480360381019061027d91906125f7565b6108a7565b005b34801561029057600080fd5b50610299610907565b6040516102a69190612708565b60405180910390f35b3480156102bb57600080fd5b506102d660048036038101906102d191906125f7565b610a58565b005b3480156102e457600080fd5b506102ff60048036038101906102fa91906125ca565b610a78565b005b34801561030d57600080fd5b50610328600480360381019061032391906125ca565b610ac4565b6040516103359190612739565b60405180910390f35b34801561034a57600080fd5b50610365600480360381019061036091906124d5565b610adc565b6040516103729190612543565b60405180910390f35b610383610b8e565b005b34801561039157600080fd5b506103ac60048036038101906103a791906125ca565b610c32565b6040516103b99190612739565b60405180910390f35b3480156103ce57600080fd5b506103d7610cea565b005b3480156103e557600080fd5b506103ee610cfe565b6040516103fb9190612543565b60405180910390f35b34801561041057600080fd5b50610419610d27565b604051610426919061247d565b60405180910390f35b34801561043b57600080fd5b506104566004803603810190610451919061258a565b610db9565b005b34801561046457600080fd5b5061047f600480360381019061047a9190612780565b61103e565b005b34801561048d57600080fd5b506104a860048036038101906104a391906128f5565b611054565b005b3480156104b657600080fd5b506104bf6110b6565b6040516104cc9190612708565b60405180910390f35b3480156104e157600080fd5b506104fc60048036038101906104f791906124d5565b61122c565b6040516105099190612543565b60405180910390f35b34801561051e57600080fd5b50610539600480360381019061053491906124d5565b61125f565b604051610546919061247d565b60405180910390f35b34801561055b57600080fd5b5061057660048036038101906105719190612978565b6112c7565b60405161058391906123c9565b60405180910390f35b34801561059857600080fd5b506105b360048036038101906105ae91906125ca565b61135b565b005b60007f80ac58cd000000000000000000000000000000000000000000000000000000007bffffffffffffffffffffffffffffffffffffffffffffffffffffffff1916827bffffffffffffffffffffffffffffffffffffffffffffffffffffffff1916148061068057507f5b5e139f000000000000000000000000000000000000000000000000000000007bffffffffffffffffffffffffffffffffffffffffffffffffffffffff1916827bffffffffffffffffffffffffffffffffffffffffffffffffffffffff1916145b80610690575061068f826113df565b5b9050919050565b6060600180546106a6906129e7565b80601f01602080910402602001604051908101604052809291908181526020018280546106d2906129e7565b801561071f5780601f106106f45761010080835404028352916020019161071f565b820191906000526020600020905b81548152906001019060200180831161070257829003601f168201915b5050505050905090565b600061073482611449565b6005600083815260200190815260200160002060009054906101000a900473ffffffffffffffffffffffffffffffffffffffff169050919050565b600061077a82610adc565b90508073ffffffffffffffffffffffffffffffffffffffff168373ffffffffffffffffffffffffffffffffffffffff1614156107eb576040517f08c379a00000000000000000000000000000000000000000000000000000000081526004016107e290612a8b565b60405180910390fd5b8073ffffffffffffffffffffffffffffffffffffffff1661080a611494565b73ffffffffffffffffffffffffffffffffffffffff161480610839575061083881610833611494565b6112c7565b5b610878576040517f08c379a000000000000000000000000000000000000000000000000000000000815260040161086f90612b1d565b60405180910390fd5b610882838361149c565b505050565b60096020528060005260406000206000915054906101000a900460ff1681565b6108b86108b2611494565b82611555565b6108f7576040517f08c379a00000000000000000000000000000000000000000000000000000000081526004016108ee90612baf565b60405180910390fd5b6109028383836115ea565b505050565b6060600080600b60003373ffffffffffffffffffffffffffffffffffffffff1673ffffffffffffffffffffffffffffffffffffffff1681526020019081526020016000205467ffffffffffffffff811115610965576109646127ca565b5b6040519080825280602002602001820160405280156109935781602001602082028036833780820191505090505b50905060005b600780549050811015610a4f573373ffffffffffffffffffffffffffffffffffffffff16600a600083815260200190815260200160002060009054906101000a900473ffffffffffffffffffffffffffffffffffffffff1673ffffffffffffffffffffffffffffffffffffffff161415610a3c5780828481518110610a2157610a20612bcf565b5b6020026020010181815250508280610a3890612c2d565b9350505b8080610a4790612c2d565b915050610999565b50809250505090565b610a7383838360405180602001604052806000815250611054565b505050565b610a80611851565b80600860006101000a81548173ffffffffffffffffffffffffffffffffffffffff021916908373ffffffffffffffffffffffffffffffffffffffff16021790555050565b600b6020528060005260406000206000915090505481565b6000806003600084815260200190815260200160002060009054906101000a900473ffffffffffffffffffffffffffffffffffffffff169050600073ffffffffffffffffffffffffffffffffffffffff168173ffffffffffffffffffffffffffffffffffffffff161415610b85576040517f08c379a0000000000000000000000000000000000000000000000000000000008152600401610b7c90612cc2565b60405180910390fd5b80915050919050565b662386f26fc100003414610ba157600080fd5b6001600960003373ffffffffffffffffffffffffffffffffffffffff1673ffffffffffffffffffffffffffffffffffffffff16815260200190815260200160002060006101000a81548160ff0219169083151502179055507f02d722ac2845ac725ffc246b20b5f066d4f7d54d9148fe2301987828bc72b6c333604051610c289190612543565b60405180910390a1565b60008073ffffffffffffffffffffffffffffffffffffffff168273ffffffffffffffffffffffffffffffffffffffff161415610ca3576040517f08c379a0000000000000000000000000000000000000000000000000000000008152600401610c9a90612d54565b60405180910390fd5b600460008373ffffffffffffffffffffffffffffffffffffffff1673ffffffffffffffffffffffffffffffffffffffff168152602001908152602001600020549050919050565b610cf2611851565b610cfc60006118cf565b565b60008060009054906101000a900473ffffffffffffffffffffffffffffffffffffffff16905090565b606060028054610d36906129e7565b80601f0160208091040260200160405190810160405280929190818152602001828054610d62906129e7565b8015610daf5780601f10610d8457610100808354040283529160200191610daf565b820191906000526020600020905b815481529060010190602001808311610d9257829003601f168201915b5050505050905090565b600860009054906101000a900473ffffffffffffffffffffffffffffffffffffffff1673ffffffffffffffffffffffffffffffffffffffff163373ffffffffffffffffffffffffffffffffffffffff1614610e1357600080fd5b6000600960008473ffffffffffffffffffffffffffffffffffffffff1673ffffffffffffffffffffffffffffffffffffffff16815260200190815260200160002060006101000a81548160ff0219169083151502179055506000610e7682611993565b905060006040518060c00160405280838152602001600c54815260200160018152602001838152602001600a81526020016000151581525090506007819080600181540180825580915050600190039060005260206000209060060201600090919091909150600082015181600001556020820151816001015560408201518160020155606082015181600301556080820151816004015560a08201518160050160006101000a81548160ff0219169083151502179055505050610f3c84600c546119d0565b83600a6000600c54815260200190815260200160002060006101000a81548173ffffffffffffffffffffffffffffffffffffffff021916908373ffffffffffffffffffffffffffffffffffffffff160217905550600b60008573ffffffffffffffffffffffffffffffffffffffff1673ffffffffffffffffffffffffffffffffffffffff1681526020019081526020016000206000815480929190610fe090612c2d565b91905055507fdbe82851b2d09154f664d67cc6e17ef02f33aeacacff618708655761a1ec71b5600c5483604051611018929190612d74565b60405180910390a1600c600081548092919061103390612c2d565b919050555050505050565b611050611049611494565b8383611a29565b5050565b61106561105f611494565b83611555565b6110a4576040517f08c379a000000000000000000000000000000000000000000000000000000000815260040161109b90612baf565b60405180910390fd5b6110b084848484611b96565b50505050565b6060600080600b60003373ffffffffffffffffffffffffffffffffffffffff1673ffffffffffffffffffffffffffffffffffffffff1681526020019081526020016000205467ffffffffffffffff811115611114576111136127ca565b5b6040519080825280602002602001820160405280156111425781602001602082028036833780820191505090505b50905060005b600780549050811015611223573373ffffffffffffffffffffffffffffffffffffffff16600a600083815260200190815260200160002060009054906101000a900473ffffffffffffffffffffffffffffffffffffffff1673ffffffffffffffffffffffffffffffffffffffff16141561121057600781815481106111d0576111cf612bcf565b5b9060005260206000209060060201600001548284815181106111f5576111f4612bcf565b5b602002602001018181525050828061120c90612c2d565b9350505b808061121b90612c2d565b915050611148565b50809250505090565b600a6020528060005260406000206000915054906101000a900473ffffffffffffffffffffffffffffffffffffffff1681565b606061126a82611449565b6000611274611bf2565b9050600081511161129457604051806020016040528060008152506112bf565b8061129e84611c09565b6040516020016112af929190612dd9565b6040516020818303038152906040525b915050919050565b6000600660008473ffffffffffffffffffffffffffffffffffffffff1673ffffffffffffffffffffffffffffffffffffffff16815260200190815260200160002060008373ffffffffffffffffffffffffffffffffffffffff1673ffffffffffffffffffffffffffffffffffffffff16815260200190815260200160002060009054906101000a900460ff16905092915050565b611363611851565b600073ffffffffffffffffffffffffffffffffffffffff168173ffffffffffffffffffffffffffffffffffffffff1614156113d3576040517f08c379a00000000000000000000000000000000000000000000000000000000081526004016113ca90612e6f565b60405180910390fd5b6113dc816118cf565b50565b60007f01ffc9a7000000000000000000000000000000000000000000000000000000007bffffffffffffffffffffffffffffffffffffffffffffffffffffffff1916827bffffffffffffffffffffffffffffffffffffffffffffffffffffffff1916149050919050565b61145281611d6a565b611491576040517f08c379a000000000000000000000000000000000000000000000000000000000815260040161148890612cc2565b60405180910390fd5b50565b600033905090565b816005600083815260200190815260200160002060006101000a81548173ffffffffffffffffffffffffffffffffffffffff021916908373ffffffffffffffffffffffffffffffffffffffff160217905550808273ffffffffffffffffffffffffffffffffffffffff1661150f83610adc565b73ffffffffffffffffffffffffffffffffffffffff167f8c5be1e5ebec7d5bd14f71427d1e84f3dd0314c0f7b2291e5b200ac8c7c3b92560405160405180910390a45050565b60008061156183610adc565b90508073ffffffffffffffffffffffffffffffffffffffff168473ffffffffffffffffffffffffffffffffffffffff1614806115a357506115a281856112c7565b5b806115e157508373ffffffffffffffffffffffffffffffffffffffff166115c984610729565b73ffffffffffffffffffffffffffffffffffffffff16145b91505092915050565b8273ffffffffffffffffffffffffffffffffffffffff1661160a82610adc565b73ffffffffffffffffffffffffffffffffffffffff1614611660576040517f08c379a000000000000000000000000000000000000000000000000000000000815260040161165790612f01565b60405180910390fd5b600073ffffffffffffffffffffffffffffffffffffffff168273ffffffffffffffffffffffffffffffffffffffff1614156116d0576040517f08c379a00000000000000000000000000000000000000000000000000000000081526004016116c790612f93565b60405180910390fd5b6116db838383611dd6565b6116e660008261149c565b6001600460008573ffffffffffffffffffffffffffffffffffffffff1673ffffffffffffffffffffffffffffffffffffffff16815260200190815260200160002060008282546117369190612fb3565b925050819055506001600460008473ffffffffffffffffffffffffffffffffffffffff1673ffffffffffffffffffffffffffffffffffffffff168152602001908152602001600020600082825461178d9190612fe7565b92505081905550816003600083815260200190815260200160002060006101000a81548173ffffffffffffffffffffffffffffffffffffffff021916908373ffffffffffffffffffffffffffffffffffffffff160217905550808273ffffffffffffffffffffffffffffffffffffffff168473ffffffffffffffffffffffffffffffffffffffff167fddf252ad1be2c89b69c2b068fc378daa952ba7f163c4a11628f55a4df523b3ef60405160405180910390a461184c838383611ddb565b505050565b611859611494565b73ffffffffffffffffffffffffffffffffffffffff16611877610cfe565b73ffffffffffffffffffffffffffffffffffffffff16146118cd576040517f08c379a00000000000000000000000000000000000000000000000000000000081526004016118c490613089565b60405180910390fd5b565b60008060009054906101000a900473ffffffffffffffffffffffffffffffffffffffff169050816000806101000a81548173ffffffffffffffffffffffffffffffffffffffff021916908373ffffffffffffffffffffffffffffffffffffffff1602179055508173ffffffffffffffffffffffffffffffffffffffff168173ffffffffffffffffffffffffffffffffffffffff167f8be0079c531659141344cd1fd0a4f28419497f9722a3daafe3b4186f6b6457e060405160405180910390a35050565b600080604b83116119a757600190506119c7565b605f83116119b857600290506119c6565b605f83106119c557600390505b5b5b80915050919050565b6119da8282611de0565b6119e660008383611fba565b611a25576040517f08c379a0000000000000000000000000000000000000000000000000000000008152600401611a1c906130f5565b60405180910390fd5b5050565b8173ffffffffffffffffffffffffffffffffffffffff168373ffffffffffffffffffffffffffffffffffffffff161415611a98576040517f08c379a0000000000000000000000000000000000000000000000000000000008152600401611a8f90613161565b60405180910390fd5b80600660008573ffffffffffffffffffffffffffffffffffffffff1673ffffffffffffffffffffffffffffffffffffffff16815260200190815260200160002060008473ffffffffffffffffffffffffffffffffffffffff1673ffffffffffffffffffffffffffffffffffffffff16815260200190815260200160002060006101000a81548160ff0219169083151502179055508173ffffffffffffffffffffffffffffffffffffffff168373ffffffffffffffffffffffffffffffffffffffff167f17307eab39ab6107e8899845ad3d59bd9653f200f220920489ca2b5937696c3183604051611b8991906123c9565b60405180910390a3505050565b611ba18484846115ea565b611bad84848484612138565b611bec576040517f08c379a0000000000000000000000000000000000000000000000000000000008152600401611be3906131f3565b60405180910390fd5b50505050565b606060405180602001604052806000815250905090565b60606000821415611c51576040518060400160405280600181526020017f30000000000000000000000000000000000000000000000000000000000000008152509050611d65565b600082905060005b60008214611c83578080611c6c90612c2d565b915050600a82611c7c9190613242565b9150611c59565b60008167ffffffffffffffff811115611c9f57611c9e6127ca565b5b6040519080825280601f01601f191660200182016040528015611cd15781602001600182028036833780820191505090505b5090505b60008514611d5e57600182611cea9190612fb3565b9150600a85611cf99190613273565b6030611d059190612fe7565b60f81b818381518110611d1b57611d1a612bcf565b5b60200101907effffffffffffffffffffffffffffffffffffffffffffffffffffffffffffff1916908160001a905350600a85611d579190613242565b9450611cd5565b8093505050505b919050565b60008073ffffffffffffffffffffffffffffffffffffffff166003600084815260200190815260200160002060009054906101000a900473ffffffffffffffffffffffffffffffffffffffff1673ffffffffffffffffffffffffffffffffffffffff1614159050919050565b505050565b505050565b600073ffffffffffffffffffffffffffffffffffffffff168273ffffffffffffffffffffffffffffffffffffffff161415611e50576040517f08c379a0000000000000000000000000000000000000000000000000000000008152600401611e47906132f0565b60405180910390fd5b611e5981611d6a565b15611e99576040517f08c379a0000000000000000000000000000000000000000000000000000000008152600401611e909061335c565b60405180910390fd5b611ea560008383611dd6565b6001600460008473ffffffffffffffffffffffffffffffffffffffff1673ffffffffffffffffffffffffffffffffffffffff1681526020019081526020016000206000828254611ef59190612fe7565b92505081905550816003600083815260200190815260200160002060006101000a81548173ffffffffffffffffffffffffffffffffffffffff021916908373ffffffffffffffffffffffffffffffffffffffff160217905550808273ffffffffffffffffffffffffffffffffffffffff16600073ffffffffffffffffffffffffffffffffffffffff167fddf252ad1be2c89b69c2b068fc378daa952ba7f163c4a11628f55a4df523b3ef60405160405180910390a4611fb660008383611ddb565b5050565b6000611fc5836122cf565b1561212c578273ffffffffffffffffffffffffffffffffffffffff1663eeafbddc611fee611494565b86856040518463ffffffff1660e01b815260040161200e9392919061337c565b602060405180830381600087803b15801561202857600080fd5b505af192505050801561205957506040513d601f19601f8201168201806040525081019061205691906133c8565b60015b6120dc573d8060008114612089576040519150601f19603f3d011682016040523d82523d6000602084013e61208e565b606091505b506000815114156120d4576040517f08c379a00000000000000000000000000000000000000000000000000000000081526004016120cb906131f3565b60405180910390fd5b805181602001fd5b63150b7a0260e01b7bffffffffffffffffffffffffffffffffffffffffffffffffffffffff1916817bffffffffffffffffffffffffffffffffffffffffffffffffffffffff191614915050612131565b600190505b9392505050565b60006121598473ffffffffffffffffffffffffffffffffffffffff166122f2565b156122c2578373ffffffffffffffffffffffffffffffffffffffff1663150b7a02612182611494565b8786866040518563ffffffff1660e01b81526004016121a4949392919061344a565b602060405180830381600087803b1580156121be57600080fd5b505af19250505080156121ef57506040513d601f19601f820116820180604052508101906121ec91906133c8565b60015b612272573d806000811461221f576040519150601f19603f3d011682016040523d82523d6000602084013e612224565b606091505b5060008151141561226a576040517f08c379a0000000000000000000000000000000000000000000000000000000008152600401612261906131f3565b60405180910390fd5b805181602001fd5b63150b7a0260e01b7bffffffffffffffffffffffffffffffffffffffffffffffffffffffff1916817bffffffffffffffffffffffffffffffffffffffffffffffffffffffff1916149150506122c7565b600190505b949350505050565b6000808273ffffffffffffffffffffffffffffffffffffffff163b119050919050565b6000808273ffffffffffffffffffffffffffffffffffffffff163b119050919050565b6000604051905090565b600080fd5b600080fd5b60007fffffffff0000000000000000000000000000000000000000000000000000000082169050919050565b61235e81612329565b811461236957600080fd5b50565b60008135905061237b81612355565b92915050565b6000602082840312156123975761239661231f565b5b60006123a58482850161236c565b91505092915050565b60008115159050919050565b6123c3816123ae565b82525050565b60006020820190506123de60008301846123ba565b92915050565b600081519050919050565b600082825260208201905092915050565b60005b8381101561241e578082015181840152602081019050612403565b8381111561242d576000848401525b50505050565b6000601f19601f8301169050919050565b600061244f826123e4565b61245981856123ef565b9350612469818560208601612400565b61247281612433565b840191505092915050565b600060208201905081810360008301526124978184612444565b905092915050565b6000819050919050565b6124b28161249f565b81146124bd57600080fd5b50565b6000813590506124cf816124a9565b92915050565b6000602082840312156124eb576124ea61231f565b5b60006124f9848285016124c0565b91505092915050565b600073ffffffffffffffffffffffffffffffffffffffff82169050919050565b600061252d82612502565b9050919050565b61253d81612522565b82525050565b60006020820190506125586000830184612534565b92915050565b61256781612522565b811461257257600080fd5b50565b6000813590506125848161255e565b92915050565b600080604083850312156125a1576125a061231f565b5b60006125af85828601612575565b92505060206125c0858286016124c0565b9150509250929050565b6000602082840312156125e0576125df61231f565b5b60006125ee84828501612575565b91505092915050565b6000806000606084860312156126105761260f61231f565b5b600061261e86828701612575565b935050602061262f86828701612575565b9250506040612640868287016124c0565b9150509250925092565b600081519050919050565b600082825260208201905092915050565b6000819050602082019050919050565b61267f8161249f565b82525050565b60006126918383612676565b60208301905092915050565b6000602082019050919050565b60006126b58261264a565b6126bf8185612655565b93506126ca83612666565b8060005b838110156126fb5781516126e28882612685565b97506126ed8361269d565b9250506001810190506126ce565b5085935050505092915050565b6000602082019050818103600083015261272281846126aa565b905092915050565b6127338161249f565b82525050565b600060208201905061274e600083018461272a565b92915050565b61275d816123ae565b811461276857600080fd5b50565b60008135905061277a81612754565b92915050565b600080604083850312156127975761279661231f565b5b60006127a585828601612575565b92505060206127b68582860161276b565b9150509250929050565b600080fd5b600080fd5b7f4e487b7100000000000000000000000000000000000000000000000000000000600052604160045260246000fd5b61280282612433565b810181811067ffffffffffffffff82111715612821576128206127ca565b5b80604052505050565b6000612834612315565b905061284082826127f9565b919050565b600067ffffffffffffffff8211156128605761285f6127ca565b5b61286982612433565b9050602081019050919050565b82818337600083830152505050565b600061289861289384612845565b61282a565b9050828152602081018484840111156128b4576128b36127c5565b5b6128bf848285612876565b509392505050565b600082601f8301126128dc576128db6127c0565b5b81356128ec848260208601612885565b91505092915050565b6000806000806080858703121561290f5761290e61231f565b5b600061291d87828801612575565b945050602061292e87828801612575565b935050604061293f878288016124c0565b925050606085013567ffffffffffffffff8111156129605761295f612324565b5b61296c878288016128c7565b91505092959194509250565b6000806040838503121561298f5761298e61231f565b5b600061299d85828601612575565b92505060206129ae85828601612575565b9150509250929050565b7f4e487b7100000000000000000000000000000000000000000000000000000000600052602260045260246000fd5b600060028204905060018216806129ff57607f821691505b60208210811415612a1357612a126129b8565b5b50919050565b7f4552433732313a20617070726f76616c20746f2063757272656e74206f776e6560008201527f7200000000000000000000000000000000000000000000000000000000000000602082015250565b6000612a756021836123ef565b9150612a8082612a19565b604082019050919050565b60006020820190508181036000830152612aa481612a68565b9050919050565b7f4552433732313a20617070726f76652063616c6c6572206973206e6f7420746f60008201527f6b656e206f776e6572206e6f7220617070726f76656420666f7220616c6c0000602082015250565b6000612b07603e836123ef565b9150612b1282612aab565b604082019050919050565b60006020820190508181036000830152612b3681612afa565b9050919050565b7f4552433732313a2063616c6c6572206973206e6f7420746f6b656e206f776e6560008201527f72206e6f7220617070726f766564000000000000000000000000000000000000602082015250565b6000612b99602e836123ef565b9150612ba482612b3d565b604082019050919050565b60006020820190508181036000830152612bc881612b8c565b9050919050565b7f4e487b7100000000000000000000000000000000000000000000000000000000600052603260045260246000fd5b7f4e487b7100000000000000000000000000000000000000000000000000000000600052601160045260246000fd5b6000612c388261249f565b91507fffffffffffffffffffffffffffffffffffffffffffffffffffffffffffffffff821415612c6b57612c6a612bfe565b5b600182019050919050565b7f4552433732313a20696e76616c696420746f6b656e2049440000000000000000600082015250565b6000612cac6018836123ef565b9150612cb782612c76565b602082019050919050565b60006020820190508181036000830152612cdb81612c9f565b9050919050565b7f4552433732313a2061646472657373207a65726f206973206e6f74206120766160008201527f6c6964206f776e65720000000000000000000000000000000000000000000000602082015250565b6000612d3e6029836123ef565b9150612d4982612ce2565b604082019050919050565b60006020820190508181036000830152612d6d81612d31565b9050919050565b6000604082019050612d89600083018561272a565b612d96602083018461272a565b9392505050565b600081905092915050565b6000612db3826123e4565b612dbd8185612d9d565b9350612dcd818560208601612400565b80840191505092915050565b6000612de58285612da8565b9150612df18284612da8565b91508190509392505050565b7f4f776e61626c653a206e6577206f776e657220697320746865207a65726f206160008201527f6464726573730000000000000000000000000000000000000000000000000000602082015250565b6000612e596026836123ef565b9150612e6482612dfd565b604082019050919050565b60006020820190508181036000830152612e8881612e4c565b9050919050565b7f4552433732313a207472616e736665722066726f6d20696e636f72726563742060008201527f6f776e6572000000000000000000000000000000000000000000000000000000602082015250565b6000612eeb6025836123ef565b9150612ef682612e8f565b604082019050919050565b60006020820190508181036000830152612f1a81612ede565b9050919050565b7f4552433732313a207472616e7366657220746f20746865207a65726f2061646460008201527f7265737300000000000000000000000000000000000000000000000000000000602082015250565b6000612f7d6024836123ef565b9150612f8882612f21565b604082019050919050565b60006020820190508181036000830152612fac81612f70565b9050919050565b6000612fbe8261249f565b9150612fc98361249f565b925082821015612fdc57612fdb612bfe565b5b828203905092915050565b6000612ff28261249f565b9150612ffd8361249f565b9250827fffffffffffffffffffffffffffffffffffffffffffffffffffffffffffffffff0382111561303257613031612bfe565b5b828201905092915050565b7f4f776e61626c653a2063616c6c6572206973206e6f7420746865206f776e6572600082015250565b60006130736020836123ef565b915061307e8261303d565b602082019050919050565b600060208201905081810360008301526130a281613066565b9050919050565b7f6e6f7420746f6461790000000000000000000000000000000000000000000000600082015250565b60006130df6009836123ef565b91506130ea826130a9565b602082019050919050565b6000602082019050818103600083015261310e816130d2565b9050919050565b7f4552433732313a20617070726f766520746f2063616c6c657200000000000000600082015250565b600061314b6019836123ef565b915061315682613115565b602082019050919050565b6000602082019050818103600083015261317a8161313e565b9050919050565b7f4552433732313a207472616e7366657220746f206e6f6e20455243373231526560008201527f63656976657220696d706c656d656e7465720000000000000000000000000000602082015250565b60006131dd6032836123ef565b91506131e882613181565b604082019050919050565b6000602082019050818103600083015261320c816131d0565b9050919050565b7f4e487b7100000000000000000000000000000000000000000000000000000000600052601260045260246000fd5b600061324d8261249f565b91506132588361249f565b92508261326857613267613213565b5b828204905092915050565b600061327e8261249f565b91506132898361249f565b92508261329957613298613213565b5b828206905092915050565b7f4552433732313a206d696e7420746f20746865207a65726f2061646472657373600082015250565b60006132da6020836123ef565b91506132e5826132a4565b602082019050919050565b60006020820190508181036000830152613309816132cd565b9050919050565b7f4552433732313a20746f6b656e20616c7265616479206d696e74656400000000600082015250565b6000613346601c836123ef565b915061335182613310565b602082019050919050565b6000602082019050818103600083015261337581613339565b9050919050565b60006060820190506133916000830186612534565b61339e6020830185612534565b6133ab604083018461272a565b949350505050565b6000815190506133c281612355565b92915050565b6000602082840312156133de576133dd61231f565b5b60006133ec848285016133b3565b91505092915050565b600081519050919050565b600082825260208201905092915050565b600061341c826133f5565b6134268185613400565b9350613436818560208601612400565b61343f81612433565b840191505092915050565b600060808201905061345f6000830187612534565b61346c6020830186612534565b613479604083018561272a565b818103606083015261348b8184613411565b90509594505050505056fea264697066735822122052798822e0a99ed1ff32b01a1b4eff90545a1d8f86ce865784511fde648bc9e864736f6c63430008090033",
  "linkReferences": {},
  "deployedLinkReferences": {}
}