{
  "_format": "hh-sol-artifact-1",
  "contractName": "ZombieMint",
  "sourceName": "contracts/zombieContract.sol",
  "abi": [
    {
      "inputs": [
        {
          "internalType": "string",
          "name": "_name",
          "type": "string"
        },
        {
          "internalType": "string",
          "name": "_symbol",
          "type": "string"
        }
      ],
      "stateMutability": "nonpayable",
      "type": "constructor"
    },
    {
      "anonymous": false,
      "inputs": [
        {
          "indexed": true,
          "internalType": "address",
          "name": "owner",
          "type": "address"
        },
        {
          "indexed": true,
          "internalType": "address",
          "name": "approved",
          "type": "address"
        },
        {
          "indexed": true,
          "internalType": "uint256",
          "name": "tokenId",
          "type": "uint256"
        }
      ],
      "name": "Approval",
      "type": "event"
    },
    {
      "anonymous": false,
      "inputs": [
        {
          "indexed": true,
          "internalType": "address",
          "name": "owner",
          "type": "address"
        },
        {
          "indexed": true,
          "internalType": "address",
          "name": "operator",
          "type": "address"
        },
        {
          "indexed": false,
          "internalType": "bool",
          "name": "approved",
          "type": "bool"
        }
      ],
      "name": "ApprovalForAll",
      "type": "event"
    },
    {
      "anonymous": false,
      "inputs": [
        {
          "indexed": true,
          "internalType": "address",
          "name": "previousOwner",
          "type": "address"
        },
        {
          "indexed": true,
          "internalType": "address",
          "name": "newOwner",
          "type": "address"
        }
      ],
      "name": "OwnershipTransferred",
      "type": "event"
    },
    {
      "anonymous": false,
      "inputs": [
        {
          "indexed": true,
          "internalType": "address",
          "name": "from",
          "type": "address"
        },
        {
          "indexed": true,
          "internalType": "address",
          "name": "to",
          "type": "address"
        },
        {
          "indexed": true,
          "internalType": "uint256",
          "name": "tokenId",
          "type": "uint256"
        }
      ],
      "name": "Transfer",
      "type": "event"
    },
    {
      "anonymous": false,
      "inputs": [
        {
          "indexed": false,
          "internalType": "uint256",
          "name": "id",
          "type": "uint256"
        },
        {
          "indexed": false,
          "internalType": "uint256",
          "name": "randNum",
          "type": "uint256"
        }
      ],
      "name": "minted",
      "type": "event"
    },
    {
      "anonymous": false,
      "inputs": [
        {
          "indexed": false,
          "internalType": "address",
          "name": "user",
          "type": "address"
        }
      ],
      "name": "payedFee",
      "type": "event"
    },
    {
      "inputs": [
        {
          "internalType": "address",
          "name": "_add",
          "type": "address"
        },
        {
          "internalType": "uint256",
          "name": "_rand",
          "type": "uint256"
        }
      ],
      "name": "_minting",
      "outputs": [],
      "stateMutability": "nonpayable",
      "type": "function"
    },
    {
      "inputs": [
        {
          "internalType": "address",
          "name": "to",
          "type": "address"
        },
        {
          "internalType": "uint256",
          "name": "tokenId",
          "type": "uint256"
        }
      ],
      "name": "approve",
      "outputs": [],
      "stateMutability": "nonpayable",
      "type": "function"
    },
    {
      "inputs": [
        {
          "internalType": "address",
          "name": "owner",
          "type": "address"
        }
      ],
      "name": "balanceOf",
      "outputs": [
        {
          "internalType": "uint256",
          "name": "",
          "type": "uint256"
        }
      ],
      "stateMutability": "view",
      "type": "function"
    },
    {
      "inputs": [],
      "name": "brainPrice",
      "outputs": [
        {
          "internalType": "uint256",
          "name": "",
          "type": "uint256"
        }
      ],
      "stateMutability": "view",
      "type": "function"
    },
    {
      "inputs": [],
      "name": "brainTest",
      "outputs": [
        {
          "internalType": "uint256",
          "name": "",
          "type": "uint256"
        }
      ],
      "stateMutability": "view",
      "type": "function"
    },
    {
      "inputs": [
        {
          "internalType": "uint256",
          "name": "_id",
          "type": "uint256"
        }
      ],
      "name": "checkIfInCrew",
      "outputs": [
        {
          "internalType": "bool",
          "name": "",
          "type": "bool"
        }
      ],
      "stateMutability": "view",
      "type": "function"
    },
    {
      "inputs": [
        {
          "internalType": "address",
          "name": "_add",
          "type": "address"
        }
      ],
      "name": "getAmount",
      "outputs": [
        {
          "internalType": "uint256",
          "name": "",
          "type": "uint256"
        }
      ],
      "stateMutability": "view",
      "type": "function"
    },
    {
      "inputs": [
        {
          "internalType": "uint256",
          "name": "tokenId",
          "type": "uint256"
        }
      ],
      "name": "getApproved",
      "outputs": [
        {
          "internalType": "address",
          "name": "",
          "type": "address"
        }
      ],
      "stateMutability": "view",
      "type": "function"
    },
    {
      "inputs": [],
      "name": "getIds",
      "outputs": [
        {
          "internalType": "uint256[]",
          "name": "",
          "type": "uint256[]"
        }
      ],
      "stateMutability": "view",
      "type": "function"
    },
    {
      "inputs": [
        {
          "internalType": "uint256",
          "name": "_id",
          "type": "uint256"
        }
      ],
      "name": "getIfInSquad",
      "outputs": [
        {
          "internalType": "bool",
          "name": "",
          "type": "bool"
        }
      ],
      "stateMutability": "view",
      "type": "function"
    },
    {
      "inputs": [],
      "name": "getRar",
      "outputs": [
        {
          "internalType": "uint256[]",
          "name": "",
          "type": "uint256[]"
        }
      ],
      "stateMutability": "view",
      "type": "function"
    },
    {
      "inputs": [
        {
          "internalType": "uint256",
          "name": "_id",
          "type": "uint256"
        }
      ],
      "name": "getStr",
      "outputs": [
        {
          "internalType": "uint256",
          "name": "",
          "type": "uint256"
        }
      ],
      "stateMutability": "view",
      "type": "function"
    },
    {
      "inputs": [],
      "name": "getStr",
      "outputs": [
        {
          "internalType": "uint256[]",
          "name": "",
          "type": "uint256[]"
        }
      ],
      "stateMutability": "view",
      "type": "function"
    },
    {
      "inputs": [
        {
          "internalType": "uint256",
          "name": "_id",
          "type": "uint256"
        }
      ],
      "name": "getStuffA",
      "outputs": [
        {
          "internalType": "uint256[]",
          "name": "",
          "type": "uint256[]"
        }
      ],
      "stateMutability": "view",
      "type": "function"
    },
    {
      "inputs": [
        {
          "internalType": "address",
          "name": "",
          "type": "address"
        }
      ],
      "name": "howMany",
      "outputs": [
        {
          "internalType": "uint256",
          "name": "",
          "type": "uint256"
        }
      ],
      "stateMutability": "view",
      "type": "function"
    },
    {
      "inputs": [
        {
          "internalType": "uint256",
          "name": "",
          "type": "uint256"
        }
      ],
      "name": "idOwner",
      "outputs": [
        {
          "internalType": "address",
          "name": "",
          "type": "address"
        }
      ],
      "stateMutability": "view",
      "type": "function"
    },
    {
      "inputs": [
        {
          "internalType": "address",
          "name": "owner",
          "type": "address"
        },
        {
          "internalType": "address",
          "name": "operator",
          "type": "address"
        }
      ],
      "name": "isApprovedForAll",
      "outputs": [
        {
          "internalType": "bool",
          "name": "",
          "type": "bool"
        }
      ],
      "stateMutability": "view",
      "type": "function"
    },
    {
      "inputs": [],
      "name": "mintFree",
      "outputs": [],
      "stateMutability": "nonpayable",
      "type": "function"
    },
    {
      "inputs": [
        {
          "internalType": "address",
          "name": "",
          "type": "address"
        }
      ],
      "name": "mintStatus",
      "outputs": [
        {
          "internalType": "bool",
          "name": "",
          "type": "bool"
        }
      ],
      "stateMutability": "view",
      "type": "function"
    },
    {
      "inputs": [],
      "name": "name",
      "outputs": [
        {
          "internalType": "string",
          "name": "",
          "type": "string"
        }
      ],
      "stateMutability": "view",
      "type": "function"
    },
    {
      "inputs": [],
      "name": "owner",
      "outputs": [
        {
          "internalType": "address",
          "name": "",
          "type": "address"
        }
      ],
      "stateMutability": "view",
      "type": "function"
    },
    {
      "inputs": [
        {
          "internalType": "uint256",
          "name": "tokenId",
          "type": "uint256"
        }
      ],
      "name": "ownerOf",
      "outputs": [
        {
          "internalType": "address",
          "name": "",
          "type": "address"
        }
      ],
      "stateMutability": "view",
      "type": "function"
    },
    {
      "inputs": [],
      "name": "payForNft",
      "outputs": [],
      "stateMutability": "payable",
      "type": "function"
    },
    {
      "inputs": [],
      "name": "payWithBr",
      "outputs": [],
      "stateMutability": "payable",
      "type": "function"
    },
    {
      "inputs": [],
      "name": "renounceOwnership",
      "outputs": [],
      "stateMutability": "nonpayable",
      "type": "function"
    },
    {
      "inputs": [
        {
          "internalType": "address",
          "name": "from",
          "type": "address"
        },
        {
          "internalType": "address",
          "name": "to",
          "type": "address"
        },
        {
          "internalType": "uint256",
          "name": "tokenId",
          "type": "uint256"
        }
      ],
      "name": "safeTransferFrom",
      "outputs": [],
      "stateMutability": "nonpayable",
      "type": "function"
    },
    {
      "inputs": [
        {
          "internalType": "address",
          "name": "from",
          "type": "address"
        },
        {
          "internalType": "address",
          "name": "to",
          "type": "address"
        },
        {
          "internalType": "uint256",
          "name": "tokenId",
          "type": "uint256"
        },
        {
          "internalType": "bytes",
          "name": "data",
          "type": "bytes"
        }
      ],
      "name": "safeTransferFrom",
      "outputs": [],
      "stateMutability": "nonpayable",
      "type": "function"
    },
    {
      "inputs": [
        {
          "internalType": "address",
          "name": "operator",
          "type": "address"
        },
        {
          "internalType": "bool",
          "name": "approved",
          "type": "bool"
        }
      ],
      "name": "setApprovalForAll",
      "outputs": [],
      "stateMutability": "nonpayable",
      "type": "function"
    },
    {
      "inputs": [
        {
          "internalType": "address",
          "name": "_add",
          "type": "address"
        }
      ],
      "name": "setCombine2",
      "outputs": [],
      "stateMutability": "nonpayable",
      "type": "function"
    },
    {
      "inputs": [
        {
          "internalType": "uint256",
          "name": "_id",
          "type": "uint256"
        }
      ],
      "name": "setCrew",
      "outputs": [],
      "stateMutability": "nonpayable",
      "type": "function"
    },
    {
      "inputs": [
        {
          "internalType": "address",
          "name": "_add",
          "type": "address"
        }
      ],
      "name": "setOracleAddress",
      "outputs": [],
      "stateMutability": "nonpayable",
      "type": "function"
    },
    {
      "inputs": [
        {
          "internalType": "address",
          "name": "_add",
          "type": "address"
        }
      ],
      "name": "setPacoCoin",
      "outputs": [],
      "stateMutability": "nonpayable",
      "type": "function"
    },
    {
      "inputs": [
        {
          "internalType": "address",
          "name": "",
          "type": "address"
        }
      ],
      "name": "strength",
      "outputs": [
        {
          "internalType": "uint256",
          "name": "",
          "type": "uint256"
        }
      ],
      "stateMutability": "view",
      "type": "function"
    },
    {
      "inputs": [
        {
          "internalType": "address",
          "name": "_add",
          "type": "address"
        }
      ],
      "name": "strr",
      "outputs": [
        {
          "internalType": "uint256",
          "name": "",
          "type": "uint256"
        }
      ],
      "stateMutability": "view",
      "type": "function"
    },
    {
      "inputs": [
        {
          "internalType": "bytes4",
          "name": "interfaceId",
          "type": "bytes4"
        }
      ],
      "name": "supportsInterface",
      "outputs": [
        {
          "internalType": "bool",
          "name": "",
          "type": "bool"
        }
      ],
      "stateMutability": "view",
      "type": "function"
    },
    {
      "inputs": [],
      "name": "symbol",
      "outputs": [
        {
          "internalType": "string",
          "name": "",
          "type": "string"
        }
      ],
      "stateMutability": "view",
      "type": "function"
    },
    {
      "inputs": [
        {
          "internalType": "uint256",
          "name": "tokenId",
          "type": "uint256"
        }
      ],
      "name": "tokenURI",
      "outputs": [
        {
          "internalType": "string",
          "name": "",
          "type": "string"
        }
      ],
      "stateMutability": "view",
      "type": "function"
    },
    {
      "inputs": [
        {
          "internalType": "address",
          "name": "from",
          "type": "address"
        },
        {
          "internalType": "address",
          "name": "to",
          "type": "address"
        },
        {
          "internalType": "uint256",
          "name": "tokenId",
          "type": "uint256"
        }
      ],
      "name": "transferFrom",
      "outputs": [],
      "stateMutability": "nonpayable",
      "type": "function"
    },
    {
      "inputs": [
        {
          "internalType": "address",
          "name": "newOwner",
          "type": "address"
        }
      ],
      "name": "transferOwnership",
      "outputs": [],
      "stateMutability": "nonpayable",
      "type": "function"
    },
    {
      "inputs": [
        {
          "internalType": "uint256",
          "name": "_id",
          "type": "uint256"
        },
        {
          "internalType": "address",
          "name": "_add",
          "type": "address"
        }
      ],
      "name": "verifyIds",
      "outputs": [
        {
          "internalType": "bool",
          "name": "",
          "type": "bool"
        }
      ],
      "stateMutability": "view",
      "type": "function"
    }
  ],
  "bytecode": "0x6080604052600060105560fa6012553480156200001b57600080fd5b5060405162004d6938038062004d698339818101604052810190620000419190620003b8565b818162000063620000576200009f60201b60201c565b620000a760201b60201c565b81600190805190602001906200007b9291906200016b565b508060029080519060200190620000949291906200016b565b5050505050620004a2565b600033905090565b60008060009054906101000a900473ffffffffffffffffffffffffffffffffffffffff169050816000806101000a81548173ffffffffffffffffffffffffffffffffffffffff021916908373ffffffffffffffffffffffffffffffffffffffff1602179055508173ffffffffffffffffffffffffffffffffffffffff168173ffffffffffffffffffffffffffffffffffffffff167f8be0079c531659141344cd1fd0a4f28419497f9722a3daafe3b4186f6b6457e060405160405180910390a35050565b82805462000179906200046c565b90600052602060002090601f0160209004810192826200019d5760008555620001e9565b82601f10620001b857805160ff1916838001178555620001e9565b82800160010185558215620001e9579182015b82811115620001e8578251825591602001919060010190620001cb565b5b509050620001f89190620001fc565b5090565b5b8082111562000217576000816000905550600101620001fd565b5090565b6000604051905090565b600080fd5b600080fd5b600080fd5b600080fd5b6000601f19601f8301169050919050565b7f4e487b7100000000000000000000000000000000000000000000000000000000600052604160045260246000fd5b620002848262000239565b810181811067ffffffffffffffff82111715620002a657620002a56200024a565b5b80604052505050565b6000620002bb6200021b565b9050620002c9828262000279565b919050565b600067ffffffffffffffff821115620002ec57620002eb6200024a565b5b620002f78262000239565b9050602081019050919050565b60005b838110156200032457808201518184015260208101905062000307565b8381111562000334576000848401525b50505050565b6000620003516200034b84620002ce565b620002af565b90508281526020810184848401111562000370576200036f62000234565b5b6200037d84828562000304565b509392505050565b600082601f8301126200039d576200039c6200022f565b5b8151620003af8482602086016200033a565b91505092915050565b60008060408385031215620003d257620003d162000225565b5b600083015167ffffffffffffffff811115620003f357620003f26200022a565b5b620004018582860162000385565b925050602083015167ffffffffffffffff8111156200042557620004246200022a565b5b620004338582860162000385565b9150509250929050565b7f4e487b7100000000000000000000000000000000000000000000000000000000600052602260045260246000fd5b600060028204905060018216806200048557607f821691505b602082108114156200049c576200049b6200043d565b5b50919050565b6148b780620004b26000396000f3fe60806040526004361061023b5760003560e01c80636d9dfc4e1161012e578063a22cb465116100ab578063c87b56dd1161006f578063c87b56dd146108c0578063d7e2d104146108fd578063e985e9c514610907578063f2fde38b14610944578063f5a797671461096d5761023b565b8063a22cb465146107c9578063b7e1b974146107f2578063b88d4fde1461082f578063b8c9e4ed14610858578063bf3fd6ce146108835761023b565b8063852f149f116100f2578063852f149f146106f65780638ab53447146107335780638da5cb5b1461074a57806395d89b4114610775578063a0f2a366146107a05761023b565b80636d9dfc4e146105ff57806370a0823114610628578063715018a6146106655780637a4577721461067c5780637bbadb26146106b95761023b565b806342842e0e116101bc5780636343e28c116101805780636343e28c146105135780636352211e14610550578063638235f71461058d5780636b40da12146105975780636c70a981146105d45761023b565b806342842e0e14610432578063458aa7fb1461045b5780634b355cfa146104845780634c69c00f146104ad578063602977ad146104d65761023b565b806323b872dd1161020357806323b872dd1461034b5780632ab8f08a146103745780632b105663146103b157806330e9a68e146103dc5780633456ca6e146104075761023b565b806301ffc9a71461024057806306fdde031461027d578063081812fc146102a8578063095ea7b3146102e55780630deab8101461030e575b600080fd5b34801561024c57600080fd5b5061026760048036038101906102629190613407565b6109aa565b604051610274919061344f565b60405180910390f35b34801561028957600080fd5b50610292610a8c565b60405161029f9190613503565b60405180910390f35b3480156102b457600080fd5b506102cf60048036038101906102ca919061355b565b610b1e565b6040516102dc91906135c9565b60405180910390f35b3480156102f157600080fd5b5061030c60048036038101906103079190613610565b610b64565b005b34801561031a57600080fd5b5061033560048036038101906103309190613650565b610c7c565b604051610342919061344f565b60405180910390f35b34801561035757600080fd5b50610372600480360381019061036d919061367d565b610c9c565b005b34801561038057600080fd5b5061039b600480360381019061039691906136d0565b610cfc565b6040516103a8919061344f565b60405180910390f35b3480156103bd57600080fd5b506103c6610d68565b6040516103d391906137ce565b60405180910390f35b3480156103e857600080fd5b506103f1610eb9565b6040516103fe91906137ff565b60405180910390f35b34801561041357600080fd5b5061041c610ebf565b60405161042991906137ff565b60405180910390f35b34801561043e57600080fd5b506104596004803603810190610454919061367d565b610ec5565b005b34801561046757600080fd5b50610482600480360381019061047d9190613650565b610ee5565b005b34801561049057600080fd5b506104ab60048036038101906104a69190613650565b610f72565b005b3480156104b957600080fd5b506104d460048036038101906104cf9190613650565b610fff565b005b3480156104e257600080fd5b506104fd60048036038101906104f89190613650565b61104b565b60405161050a91906137ff565b60405180910390f35b34801561051f57600080fd5b5061053a60048036038101906105359190613650565b611063565b60405161054791906137ff565b60405180910390f35b34801561055c57600080fd5b506105776004803603810190610572919061355b565b61107b565b60405161058491906135c9565b60405180910390f35b61059561112d565b005b3480156105a357600080fd5b506105be60048036038101906105b9919061355b565b6111d1565b6040516105cb91906137ce565b60405180910390f35b3480156105e057600080fd5b506105e9611365565b6040516105f691906137ce565b60405180910390f35b34801561060b57600080fd5b506106266004803603810190610621919061355b565b6114db565b005b34801561063457600080fd5b5061064f600480360381019061064a9190613650565b6115de565b60405161065c91906137ff565b60405180910390f35b34801561067157600080fd5b5061067a611696565b005b34801561068857600080fd5b506106a3600480360381019061069e919061355b565b6116aa565b6040516106b0919061344f565b60405180910390f35b3480156106c557600080fd5b506106e060048036038101906106db919061355b565b6116e6565b6040516106ed919061344f565b60405180910390f35b34801561070257600080fd5b5061071d60048036038101906107189190613650565b611722565b60405161072a91906137ff565b60405180910390f35b34801561073f57600080fd5b50610748611770565b005b34801561075657600080fd5b5061075f61198d565b60405161076c91906135c9565b60405180910390f35b34801561078157600080fd5b5061078a6119b6565b6040516107979190613503565b60405180910390f35b3480156107ac57600080fd5b506107c760048036038101906107c29190613610565b611a48565b005b3480156107d557600080fd5b506107f060048036038101906107eb9190613846565b611d23565b005b3480156107fe57600080fd5b506108196004803603810190610814919061355b565b611d39565b60405161082691906137ff565b60405180910390f35b34801561083b57600080fd5b50610856600480360381019061085191906139bb565b611d68565b005b34801561086457600080fd5b5061086d611dca565b60405161087a91906137ce565b60405180910390f35b34801561088f57600080fd5b506108aa60048036038101906108a5919061355b565b611f40565b6040516108b791906135c9565b60405180910390f35b3480156108cc57600080fd5b506108e760048036038101906108e2919061355b565b611f73565b6040516108f49190613503565b60405180910390f35b610905611fdb565b005b34801561091357600080fd5b5061092e60048036038101906109299190613a3e565b6122ff565b60405161093b919061344f565b60405180910390f35b34801561095057600080fd5b5061096b60048036038101906109669190613650565b612393565b005b34801561097957600080fd5b50610994600480360381019061098f9190613650565b612417565b6040516109a191906137ff565b60405180910390f35b60007f80ac58cd000000000000000000000000000000000000000000000000000000007bffffffffffffffffffffffffffffffffffffffffffffffffffffffff1916827bffffffffffffffffffffffffffffffffffffffffffffffffffffffff19161480610a7557507f5b5e139f000000000000000000000000000000000000000000000000000000007bffffffffffffffffffffffffffffffffffffffffffffffffffffffff1916827bffffffffffffffffffffffffffffffffffffffffffffffffffffffff1916145b80610a855750610a8482612465565b5b9050919050565b606060018054610a9b90613aad565b80601f0160208091040260200160405190810160405280929190818152602001828054610ac790613aad565b8015610b145780601f10610ae957610100808354040283529160200191610b14565b820191906000526020600020905b815481529060010190602001808311610af757829003601f168201915b5050505050905090565b6000610b29826124cf565b6005600083815260200190815260200160002060009054906101000a900473ffffffffffffffffffffffffffffffffffffffff169050919050565b6000610b6f8261107b565b90508073ffffffffffffffffffffffffffffffffffffffff168373ffffffffffffffffffffffffffffffffffffffff161415610be0576040517f08c379a0000000000000000000000000000000000000000000000000000000008152600401610bd790613b51565b60405180910390fd5b8073ffffffffffffffffffffffffffffffffffffffff16610bff61251a565b73ffffffffffffffffffffffffffffffffffffffff161480610c2e5750610c2d81610c2861251a565b6122ff565b5b610c6d576040517f08c379a0000000000000000000000000000000000000000000000000000000008152600401610c6490613be3565b60405180910390fd5b610c778383612522565b505050565b600c6020528060005260406000206000915054906101000a900460ff1681565b610cad610ca761251a565b826125db565b610cec576040517f08c379a0000000000000000000000000000000000000000000000000000000008152600401610ce390613c75565b60405180910390fd5b610cf7838383612670565b505050565b6000600d600084815260200190815260200160002060009054906101000a900473ffffffffffffffffffffffffffffffffffffffff1673ffffffffffffffffffffffffffffffffffffffff168273ffffffffffffffffffffffffffffffffffffffff1614905092915050565b6060600080600e60003373ffffffffffffffffffffffffffffffffffffffff1673ffffffffffffffffffffffffffffffffffffffff1681526020019081526020016000205467ffffffffffffffff811115610dc657610dc5613890565b5b604051908082528060200260200182016040528015610df45781602001602082028036833780820191505090505b50905060005b600b80549050811015610eb0573373ffffffffffffffffffffffffffffffffffffffff16600d600083815260200190815260200160002060009054906101000a900473ffffffffffffffffffffffffffffffffffffffff1673ffffffffffffffffffffffffffffffffffffffff161415610e9d5780828481518110610e8257610e81613c95565b5b6020026020010181815250508280610e9990613cf3565b9350505b8080610ea890613cf3565b915050610dfa565b50809250505090565b60115481565b60125481565b610ee083838360405180602001604052806000815250611d68565b505050565b610eed6128d7565b80600760006101000a81548173ffffffffffffffffffffffffffffffffffffffff021916908373ffffffffffffffffffffffffffffffffffffffff16021790555080600860006101000a81548173ffffffffffffffffffffffffffffffffffffffff021916908373ffffffffffffffffffffffffffffffffffffffff16021790555050565b610f7a6128d7565b80600960006101000a81548173ffffffffffffffffffffffffffffffffffffffff021916908373ffffffffffffffffffffffffffffffffffffffff16021790555080600a60006101000a81548173ffffffffffffffffffffffffffffffffffffffff021916908373ffffffffffffffffffffffffffffffffffffffff16021790555050565b6110076128d7565b80601360006101000a81548173ffffffffffffffffffffffffffffffffffffffff021916908373ffffffffffffffffffffffffffffffffffffffff16021790555050565b600e6020528060005260406000206000915090505481565b600f6020528060005260406000206000915090505481565b6000806003600084815260200190815260200160002060009054906101000a900473ffffffffffffffffffffffffffffffffffffffff169050600073ffffffffffffffffffffffffffffffffffffffff168173ffffffffffffffffffffffffffffffffffffffff161415611124576040517f08c379a000000000000000000000000000000000000000000000000000000000815260040161111b90613d88565b60405180910390fd5b80915050919050565b662386f26fc10000341461114057600080fd5b6001600c60003373ffffffffffffffffffffffffffffffffffffffff1673ffffffffffffffffffffffffffffffffffffffff16815260200190815260200160002060006101000a81548160ff0219169083151502179055507f02d722ac2845ac725ffc246b20b5f066d4f7d54d9148fe2301987828bc72b6c3336040516111c791906135c9565b60405180910390a1565b60606000600467ffffffffffffffff8111156111f0576111ef613890565b5b60405190808252806020026020018201604052801561121e5781602001602082028036833780820191505090505b5090506000600b848154811061123757611236613c95565b5b90600052602060002090600602016000015482828151811061125c5761125b613c95565b5b602002602001018181525050600b848154811061127c5761127b613c95565b5b9060005260206000209060060201600201548260018361129c9190613da8565b815181106112ad576112ac613c95565b5b602002602001018181525050600b84815481106112cd576112cc613c95565b5b906000526020600020906006020160030154826002836112ed9190613da8565b815181106112fe576112fd613c95565b5b602002602001018181525050600b848154811061131e5761131d613c95565b5b9060005260206000209060060201600401548260038361133e9190613da8565b8151811061134f5761134e613c95565b5b6020026020010181815250508192505050919050565b6060600080600e60003373ffffffffffffffffffffffffffffffffffffffff1673ffffffffffffffffffffffffffffffffffffffff1681526020019081526020016000205467ffffffffffffffff8111156113c3576113c2613890565b5b6040519080825280602002602001820160405280156113f15781602001602082028036833780820191505090505b50905060005b600b805490508110156114d2573373ffffffffffffffffffffffffffffffffffffffff16600d600083815260200190815260200160002060009054906101000a900473ffffffffffffffffffffffffffffffffffffffff1673ffffffffffffffffffffffffffffffffffffffff1614156114bf57600b818154811061147f5761147e613c95565b5b9060005260206000209060060201600301548284815181106114a4576114a3613c95565b5b60200260200101818152505082806114bb90613cf3565b9350505b80806114ca90613cf3565b9150506113f7565b50809250505090565b600860009054906101000a900473ffffffffffffffffffffffffffffffffffffffff1673ffffffffffffffffffffffffffffffffffffffff163373ffffffffffffffffffffffffffffffffffffffff161461156b576040517f08c379a000000000000000000000000000000000000000000000000000000000815260040161156290613e4a565b60405180910390fd5b600b818154811061157f5761157e613c95565b5b906000526020600020906006020160050160009054906101000a900460ff1615600b82815481106115b3576115b2613c95565b5b906000526020600020906006020160050160006101000a81548160ff02191690831515021790555050565b60008073ffffffffffffffffffffffffffffffffffffffff168273ffffffffffffffffffffffffffffffffffffffff16141561164f576040517f08c379a000000000000000000000000000000000000000000000000000000000815260040161164690613edc565b60405180910390fd5b600460008373ffffffffffffffffffffffffffffffffffffffff1673ffffffffffffffffffffffffffffffffffffffff168152602001908152602001600020549050919050565b61169e6128d7565b6116a86000612955565b565b6000600b82815481106116c0576116bf613c95565b5b906000526020600020906006020160050160009054906101000a900460ff169050919050565b6000600b82815481106116fc576116fb613c95565b5b906000526020600020906006020160050160009054906101000a900460ff169050919050565b600080600f60008473ffffffffffffffffffffffffffffffffffffffff1673ffffffffffffffffffffffffffffffffffffffff16815260200190815260200160002054905080915050919050565b60006040518060c001604052806001815260200160105481526020016001815260200160018152602001600a8152602001600015158152509050600b819080600181540180825580915050600190039060005260206000209060060201600090919091909150600082015181600001556020820151816001015560408201518160020155606082015181600301556080820151816004015560a08201518160050160006101000a81548160ff021916908315150217905550505061183633601054612a19565b33600d6000601054815260200190815260200160002060006101000a81548173ffffffffffffffffffffffffffffffffffffffff021916908373ffffffffffffffffffffffffffffffffffffffff160217905550600e60003373ffffffffffffffffffffffffffffffffffffffff1673ffffffffffffffffffffffffffffffffffffffff16815260200190815260200160002060008154809291906118da90613cf3565b91905055506001600f60003373ffffffffffffffffffffffffffffffffffffffff1673ffffffffffffffffffffffffffffffffffffffff168152602001908152602001600020600082825461192f9190613da8565b925050819055507fdbe82851b2d09154f664d67cc6e17ef02f33aeacacff618708655761a1ec71b5601054600160405161196a929190613f41565b60405180910390a16010600081548092919061198590613cf3565b919050555050565b60008060009054906101000a900473ffffffffffffffffffffffffffffffffffffffff16905090565b6060600280546119c590613aad565b80601f01602080910402602001604051908101604052809291908181526020018280546119f190613aad565b8015611a3e5780601f10611a1357610100808354040283529160200191611a3e565b820191906000526020600020905b815481529060010190602001808311611a2157829003601f168201915b5050505050905090565b601360009054906101000a900473ffffffffffffffffffffffffffffffffffffffff1673ffffffffffffffffffffffffffffffffffffffff163373ffffffffffffffffffffffffffffffffffffffff1614611aa257600080fd5b6000600c60008473ffffffffffffffffffffffffffffffffffffffff1673ffffffffffffffffffffffffffffffffffffffff16815260200190815260200160002060006101000a81548160ff0219169083151502179055506000611b0582612a72565b905060006040518060c00160405280838152602001601054815260200160018152602001838152602001600a8152602001600015158152509050600b819080600181540180825580915050600190039060005260206000209060060201600090919091909150600082015181600001556020820151816001015560408201518160020155606082015181600301556080820151816004015560a08201518160050160006101000a81548160ff0219169083151502179055505050611bcb84601054612a19565b83600d6000601054815260200190815260200160002060006101000a81548173ffffffffffffffffffffffffffffffffffffffff021916908373ffffffffffffffffffffffffffffffffffffffff160217905550600e60008573ffffffffffffffffffffffffffffffffffffffff1673ffffffffffffffffffffffffffffffffffffffff1681526020019081526020016000206000815480929190611c6f90613cf3565b919050555081600f60008673ffffffffffffffffffffffffffffffffffffffff1673ffffffffffffffffffffffffffffffffffffffff1681526020019081526020016000206000828254611cc39190613da8565b925050819055507fdbe82851b2d09154f664d67cc6e17ef02f33aeacacff618708655761a1ec71b560105483604051611cfd929190613f6a565b60405180910390a160106000815480929190611d1890613cf3565b919050555050505050565b611d35611d2e61251a565b8383612aaf565b5050565b6000600b8281548110611d4f57611d4e613c95565b5b9060005260206000209060060201600001549050919050565b611d79611d7361251a565b836125db565b611db8576040517f08c379a0000000000000000000000000000000000000000000000000000000008152600401611daf90613c75565b60405180910390fd5b611dc484848484612c1c565b50505050565b6060600080600e60003373ffffffffffffffffffffffffffffffffffffffff1673ffffffffffffffffffffffffffffffffffffffff1681526020019081526020016000205467ffffffffffffffff811115611e2857611e27613890565b5b604051908082528060200260200182016040528015611e565781602001602082028036833780820191505090505b50905060005b600b80549050811015611f37573373ffffffffffffffffffffffffffffffffffffffff16600d600083815260200190815260200160002060009054906101000a900473ffffffffffffffffffffffffffffffffffffffff1673ffffffffffffffffffffffffffffffffffffffff161415611f2457600b8181548110611ee457611ee3613c95565b5b906000526020600020906006020160000154828481518110611f0957611f08613c95565b5b6020026020010181815250508280611f2090613cf3565b9350505b8080611f2f90613cf3565b915050611e5c565b50809250505090565b600d6020528060005260406000206000915054906101000a900473ffffffffffffffffffffffffffffffffffffffff1681565b6060611f7e826124cf565b6000611f88612c78565b90506000815111611fa85760405180602001604052806000815250611fd3565b80611fb284612c8f565b604051602001611fc3929190613fcf565b6040516020818303038152906040525b915050919050565b601254600960009054906101000a900473ffffffffffffffffffffffffffffffffffffffff1673ffffffffffffffffffffffffffffffffffffffff1663dd62ed3e33306040518363ffffffff1660e01b815260040161203b929190613ff3565b60206040518083038186803b15801561205357600080fd5b505afa158015612067573d6000803e3d6000fd5b505050506040513d601f19601f8201168201806040525081019061208b9190614031565b10156120cc576040517f08c379a00000000000000000000000000000000000000000000000000000000081526004016120c3906140aa565b60405180910390fd5b601254600960009054906101000a900473ffffffffffffffffffffffffffffffffffffffff1673ffffffffffffffffffffffffffffffffffffffff166370a08231336040518263ffffffff1660e01b815260040161212a91906135c9565b60206040518083038186803b15801561214257600080fd5b505afa158015612156573d6000803e3d6000fd5b505050506040513d601f19601f8201168201806040525081019061217a9190614031565b10156121bb576040517f08c379a00000000000000000000000000000000000000000000000000000000081526004016121b290614116565b60405180910390fd5b6000670de0b6b3a76400006012546121d39190614136565b9050600960009054906101000a900473ffffffffffffffffffffffffffffffffffffffff1673ffffffffffffffffffffffffffffffffffffffff166323b872dd3330846040518463ffffffff1660e01b815260040161223493929190614190565b602060405180830381600087803b15801561224e57600080fd5b505af1158015612262573d6000803e3d6000fd5b505050506040513d601f19601f8201168201806040525081019061228691906141dc565b6122c5576040517f08c379a00000000000000000000000000000000000000000000000000000000081526004016122bc90614255565b60405180910390fd5b7f02d722ac2845ac725ffc246b20b5f066d4f7d54d9148fe2301987828bc72b6c3336040516122f491906135c9565b60405180910390a150565b6000600660008473ffffffffffffffffffffffffffffffffffffffff1673ffffffffffffffffffffffffffffffffffffffff16815260200190815260200160002060008373ffffffffffffffffffffffffffffffffffffffff1673ffffffffffffffffffffffffffffffffffffffff16815260200190815260200160002060009054906101000a900460ff16905092915050565b61239b6128d7565b600073ffffffffffffffffffffffffffffffffffffffff168173ffffffffffffffffffffffffffffffffffffffff16141561240b576040517f08c379a0000000000000000000000000000000000000000000000000000000008152600401612402906142e7565b60405180910390fd5b61241481612955565b50565b600080600e60008473ffffffffffffffffffffffffffffffffffffffff1673ffffffffffffffffffffffffffffffffffffffff16815260200190815260200160002054905080915050919050565b60007f01ffc9a7000000000000000000000000000000000000000000000000000000007bffffffffffffffffffffffffffffffffffffffffffffffffffffffff1916827bffffffffffffffffffffffffffffffffffffffffffffffffffffffff1916149050919050565b6124d881612df0565b612517576040517f08c379a000000000000000000000000000000000000000000000000000000000815260040161250e90613d88565b60405180910390fd5b50565b600033905090565b816005600083815260200190815260200160002060006101000a81548173ffffffffffffffffffffffffffffffffffffffff021916908373ffffffffffffffffffffffffffffffffffffffff160217905550808273ffffffffffffffffffffffffffffffffffffffff166125958361107b565b73ffffffffffffffffffffffffffffffffffffffff167f8c5be1e5ebec7d5bd14f71427d1e84f3dd0314c0f7b2291e5b200ac8c7c3b92560405160405180910390a45050565b6000806125e78361107b565b90508073ffffffffffffffffffffffffffffffffffffffff168473ffffffffffffffffffffffffffffffffffffffff161480612629575061262881856122ff565b5b8061266757508373ffffffffffffffffffffffffffffffffffffffff1661264f84610b1e565b73ffffffffffffffffffffffffffffffffffffffff16145b91505092915050565b8273ffffffffffffffffffffffffffffffffffffffff166126908261107b565b73ffffffffffffffffffffffffffffffffffffffff16146126e6576040517f08c379a00000000000000000000000000000000000000000000000000000000081526004016126dd90614379565b60405180910390fd5b600073ffffffffffffffffffffffffffffffffffffffff168273ffffffffffffffffffffffffffffffffffffffff161415612756576040517f08c379a000000000000000000000000000000000000000000000000000000000815260040161274d9061440b565b60405180910390fd5b612761838383612e5c565b61276c600082612522565b6001600460008573ffffffffffffffffffffffffffffffffffffffff1673ffffffffffffffffffffffffffffffffffffffff16815260200190815260200160002060008282546127bc919061442b565b925050819055506001600460008473ffffffffffffffffffffffffffffffffffffffff1673ffffffffffffffffffffffffffffffffffffffff16815260200190815260200160002060008282546128139190613da8565b92505081905550816003600083815260200190815260200160002060006101000a81548173ffffffffffffffffffffffffffffffffffffffff021916908373ffffffffffffffffffffffffffffffffffffffff160217905550808273ffffffffffffffffffffffffffffffffffffffff168473ffffffffffffffffffffffffffffffffffffffff167fddf252ad1be2c89b69c2b068fc378daa952ba7f163c4a11628f55a4df523b3ef60405160405180910390a46128d2838383612e61565b505050565b6128df61251a565b73ffffffffffffffffffffffffffffffffffffffff166128fd61198d565b73ffffffffffffffffffffffffffffffffffffffff1614612953576040517f08c379a000000000000000000000000000000000000000000000000000000000815260040161294a906144ab565b60405180910390fd5b565b60008060009054906101000a900473ffffffffffffffffffffffffffffffffffffffff169050816000806101000a81548173ffffffffffffffffffffffffffffffffffffffff021916908373ffffffffffffffffffffffffffffffffffffffff1602179055508173ffffffffffffffffffffffffffffffffffffffff168173ffffffffffffffffffffffffffffffffffffffff167f8be0079c531659141344cd1fd0a4f28419497f9722a3daafe3b4186f6b6457e060405160405180910390a35050565b612a238282612e66565b612a2f60008383613040565b612a6e576040517f08c379a0000000000000000000000000000000000000000000000000000000008152600401612a6590614517565b60405180910390fd5b5050565b600080604b8311612a865760019050612aa6565b605f8311612a975760029050612aa5565b605f8310612aa457600390505b5b5b80915050919050565b8173ffffffffffffffffffffffffffffffffffffffff168373ffffffffffffffffffffffffffffffffffffffff161415612b1e576040517f08c379a0000000000000000000000000000000000000000000000000000000008152600401612b1590614583565b60405180910390fd5b80600660008573ffffffffffffffffffffffffffffffffffffffff1673ffffffffffffffffffffffffffffffffffffffff16815260200190815260200160002060008473ffffffffffffffffffffffffffffffffffffffff1673ffffffffffffffffffffffffffffffffffffffff16815260200190815260200160002060006101000a81548160ff0219169083151502179055508173ffffffffffffffffffffffffffffffffffffffff168373ffffffffffffffffffffffffffffffffffffffff167f17307eab39ab6107e8899845ad3d59bd9653f200f220920489ca2b5937696c3183604051612c0f919061344f565b60405180910390a3505050565b612c27848484612670565b612c33848484846131be565b612c72576040517f08c379a0000000000000000000000000000000000000000000000000000000008152600401612c6990614615565b60405180910390fd5b50505050565b606060405180602001604052806000815250905090565b60606000821415612cd7576040518060400160405280600181526020017f30000000000000000000000000000000000000000000000000000000000000008152509050612deb565b600082905060005b60008214612d09578080612cf290613cf3565b915050600a82612d029190614664565b9150612cdf565b60008167ffffffffffffffff811115612d2557612d24613890565b5b6040519080825280601f01601f191660200182016040528015612d575781602001600182028036833780820191505090505b5090505b60008514612de457600182612d70919061442b565b9150600a85612d7f9190614695565b6030612d8b9190613da8565b60f81b818381518110612da157612da0613c95565b5b60200101907effffffffffffffffffffffffffffffffffffffffffffffffffffffffffffff1916908160001a905350600a85612ddd9190614664565b9450612d5b565b8093505050505b919050565b60008073ffffffffffffffffffffffffffffffffffffffff166003600084815260200190815260200160002060009054906101000a900473ffffffffffffffffffffffffffffffffffffffff1673ffffffffffffffffffffffffffffffffffffffff1614159050919050565b505050565b505050565b600073ffffffffffffffffffffffffffffffffffffffff168273ffffffffffffffffffffffffffffffffffffffff161415612ed6576040517f08c379a0000000000000000000000000000000000000000000000000000000008152600401612ecd90614712565b60405180910390fd5b612edf81612df0565b15612f1f576040517f08c379a0000000000000000000000000000000000000000000000000000000008152600401612f169061477e565b60405180910390fd5b612f2b60008383612e5c565b6001600460008473ffffffffffffffffffffffffffffffffffffffff1673ffffffffffffffffffffffffffffffffffffffff1681526020019081526020016000206000828254612f7b9190613da8565b92505081905550816003600083815260200190815260200160002060006101000a81548173ffffffffffffffffffffffffffffffffffffffff021916908373ffffffffffffffffffffffffffffffffffffffff160217905550808273ffffffffffffffffffffffffffffffffffffffff16600073ffffffffffffffffffffffffffffffffffffffff167fddf252ad1be2c89b69c2b068fc378daa952ba7f163c4a11628f55a4df523b3ef60405160405180910390a461303c60008383612e61565b5050565b600061304b83613355565b156131b2578273ffffffffffffffffffffffffffffffffffffffff1663eeafbddc61307461251a565b86856040518463ffffffff1660e01b815260040161309493929190614190565b602060405180830381600087803b1580156130ae57600080fd5b505af19250505080156130df57506040513d601f19601f820116820180604052508101906130dc91906147b3565b60015b613162573d806000811461310f576040519150601f19603f3d011682016040523d82523d6000602084013e613114565b606091505b5060008151141561315a576040517f08c379a000000000000000000000000000000000000000000000000000000000815260040161315190614615565b60405180910390fd5b805181602001fd5b63150b7a0260e01b7bffffffffffffffffffffffffffffffffffffffffffffffffffffffff1916817bffffffffffffffffffffffffffffffffffffffffffffffffffffffff1916149150506131b7565b600190505b9392505050565b60006131df8473ffffffffffffffffffffffffffffffffffffffff16613378565b15613348578373ffffffffffffffffffffffffffffffffffffffff1663150b7a0261320861251a565b8786866040518563ffffffff1660e01b815260040161322a9493929190614835565b602060405180830381600087803b15801561324457600080fd5b505af192505050801561327557506040513d601f19601f8201168201806040525081019061327291906147b3565b60015b6132f8573d80600081146132a5576040519150601f19603f3d011682016040523d82523d6000602084013e6132aa565b606091505b506000815114156132f0576040517f08c379a00000000000000000000000000000000000000000000000000000000081526004016132e790614615565b60405180910390fd5b805181602001fd5b63150b7a0260e01b7bffffffffffffffffffffffffffffffffffffffffffffffffffffffff1916817bffffffffffffffffffffffffffffffffffffffffffffffffffffffff19161491505061334d565b600190505b949350505050565b6000808273ffffffffffffffffffffffffffffffffffffffff163b119050919050565b6000808273ffffffffffffffffffffffffffffffffffffffff163b119050919050565b6000604051905090565b600080fd5b600080fd5b60007fffffffff0000000000000000000000000000000000000000000000000000000082169050919050565b6133e4816133af565b81146133ef57600080fd5b50565b600081359050613401816133db565b92915050565b60006020828403121561341d5761341c6133a5565b5b600061342b848285016133f2565b91505092915050565b60008115159050919050565b61344981613434565b82525050565b60006020820190506134646000830184613440565b92915050565b600081519050919050565b600082825260208201905092915050565b60005b838110156134a4578082015181840152602081019050613489565b838111156134b3576000848401525b50505050565b6000601f19601f8301169050919050565b60006134d58261346a565b6134df8185613475565b93506134ef818560208601613486565b6134f8816134b9565b840191505092915050565b6000602082019050818103600083015261351d81846134ca565b905092915050565b6000819050919050565b61353881613525565b811461354357600080fd5b50565b6000813590506135558161352f565b92915050565b600060208284031215613571576135706133a5565b5b600061357f84828501613546565b91505092915050565b600073ffffffffffffffffffffffffffffffffffffffff82169050919050565b60006135b382613588565b9050919050565b6135c3816135a8565b82525050565b60006020820190506135de60008301846135ba565b92915050565b6135ed816135a8565b81146135f857600080fd5b50565b60008135905061360a816135e4565b92915050565b60008060408385031215613627576136266133a5565b5b6000613635858286016135fb565b925050602061364685828601613546565b9150509250929050565b600060208284031215613666576136656133a5565b5b6000613674848285016135fb565b91505092915050565b600080600060608486031215613696576136956133a5565b5b60006136a4868287016135fb565b93505060206136b5868287016135fb565b92505060406136c686828701613546565b9150509250925092565b600080604083850312156136e7576136e66133a5565b5b60006136f585828601613546565b9250506020613706858286016135fb565b9150509250929050565b600081519050919050565b600082825260208201905092915050565b6000819050602082019050919050565b61374581613525565b82525050565b6000613757838361373c565b60208301905092915050565b6000602082019050919050565b600061377b82613710565b613785818561371b565b93506137908361372c565b8060005b838110156137c15781516137a8888261374b565b97506137b383613763565b925050600181019050613794565b5085935050505092915050565b600060208201905081810360008301526137e88184613770565b905092915050565b6137f981613525565b82525050565b600060208201905061381460008301846137f0565b92915050565b61382381613434565b811461382e57600080fd5b50565b6000813590506138408161381a565b92915050565b6000806040838503121561385d5761385c6133a5565b5b600061386b858286016135fb565b925050602061387c85828601613831565b9150509250929050565b600080fd5b600080fd5b7f4e487b7100000000000000000000000000000000000000000000000000000000600052604160045260246000fd5b6138c8826134b9565b810181811067ffffffffffffffff821117156138e7576138e6613890565b5b80604052505050565b60006138fa61339b565b905061390682826138bf565b919050565b600067ffffffffffffffff82111561392657613925613890565b5b61392f826134b9565b9050602081019050919050565b82818337600083830152505050565b600061395e6139598461390b565b6138f0565b90508281526020810184848401111561397a5761397961388b565b5b61398584828561393c565b509392505050565b600082601f8301126139a2576139a1613886565b5b81356139b284826020860161394b565b91505092915050565b600080600080608085870312156139d5576139d46133a5565b5b60006139e3878288016135fb565b94505060206139f4878288016135fb565b9350506040613a0587828801613546565b925050606085013567ffffffffffffffff811115613a2657613a256133aa565b5b613a328782880161398d565b91505092959194509250565b60008060408385031215613a5557613a546133a5565b5b6000613a63858286016135fb565b9250506020613a74858286016135fb565b9150509250929050565b7f4e487b7100000000000000000000000000000000000000000000000000000000600052602260045260246000fd5b60006002820490506001821680613ac557607f821691505b60208210811415613ad957613ad8613a7e565b5b50919050565b7f4552433732313a20617070726f76616c20746f2063757272656e74206f776e6560008201527f7200000000000000000000000000000000000000000000000000000000000000602082015250565b6000613b3b602183613475565b9150613b4682613adf565b604082019050919050565b60006020820190508181036000830152613b6a81613b2e565b9050919050565b7f4552433732313a20617070726f76652063616c6c6572206973206e6f7420746f60008201527f6b656e206f776e6572206e6f7220617070726f76656420666f7220616c6c0000602082015250565b6000613bcd603e83613475565b9150613bd882613b71565b604082019050919050565b60006020820190508181036000830152613bfc81613bc0565b9050919050565b7f4552433732313a2063616c6c6572206973206e6f7420746f6b656e206f776e6560008201527f72206e6f7220617070726f766564000000000000000000000000000000000000602082015250565b6000613c5f602e83613475565b9150613c6a82613c03565b604082019050919050565b60006020820190508181036000830152613c8e81613c52565b9050919050565b7f4e487b7100000000000000000000000000000000000000000000000000000000600052603260045260246000fd5b7f4e487b7100000000000000000000000000000000000000000000000000000000600052601160045260246000fd5b6000613cfe82613525565b91507fffffffffffffffffffffffffffffffffffffffffffffffffffffffffffffffff821415613d3157613d30613cc4565b5b600182019050919050565b7f4552433732313a20696e76616c696420746f6b656e2049440000000000000000600082015250565b6000613d72601883613475565b9150613d7d82613d3c565b602082019050919050565b60006020820190508181036000830152613da181613d65565b9050919050565b6000613db382613525565b9150613dbe83613525565b9250827fffffffffffffffffffffffffffffffffffffffffffffffffffffffffffffffff03821115613df357613df2613cc4565b5b828201905092915050565b7f596f75206172656e74206120636f6e74726163742e0000000000000000000000600082015250565b6000613e34601583613475565b9150613e3f82613dfe565b602082019050919050565b60006020820190508181036000830152613e6381613e27565b9050919050565b7f4552433732313a2061646472657373207a65726f206973206e6f74206120766160008201527f6c6964206f776e65720000000000000000000000000000000000000000000000602082015250565b6000613ec6602983613475565b9150613ed182613e6a565b604082019050919050565b60006020820190508181036000830152613ef581613eb9565b9050919050565b6000819050919050565b6000819050919050565b6000613f2b613f26613f2184613efc565b613f06565b613525565b9050919050565b613f3b81613f10565b82525050565b6000604082019050613f5660008301856137f0565b613f636020830184613f32565b9392505050565b6000604082019050613f7f60008301856137f0565b613f8c60208301846137f0565b9392505050565b600081905092915050565b6000613fa98261346a565b613fb38185613f93565b9350613fc3818560208601613486565b80840191505092915050565b6000613fdb8285613f9e565b9150613fe78284613f9e565b91508190509392505050565b600060408201905061400860008301856135ba565b61401560208301846135ba565b9392505050565b60008151905061402b8161352f565b92915050565b600060208284031215614047576140466133a5565b5b60006140558482850161401c565b91505092915050565b7f4e6f7420656e6f7567687420636f696e73206f7220616c6c6f77616e63652e00600082015250565b6000614094601f83613475565b915061409f8261405e565b602082019050919050565b600060208201905081810360008301526140c381614087565b9050919050565b7f42616c616e6365206e6f7420656e6f756768742e000000000000000000000000600082015250565b6000614100601483613475565b915061410b826140ca565b602082019050919050565b6000602082019050818103600083015261412f816140f3565b9050919050565b600061414182613525565b915061414c83613525565b9250817fffffffffffffffffffffffffffffffffffffffffffffffffffffffffffffffff048311821515161561418557614184613cc4565b5b828202905092915050565b60006060820190506141a560008301866135ba565b6141b260208301856135ba565b6141bf60408301846137f0565b949350505050565b6000815190506141d68161381a565b92915050565b6000602082840312156141f2576141f16133a5565b5b6000614200848285016141c7565b91505092915050565b7f5472616e73666572204661696c65642e00000000000000000000000000000000600082015250565b600061423f601083613475565b915061424a82614209565b602082019050919050565b6000602082019050818103600083015261426e81614232565b9050919050565b7f4f776e61626c653a206e6577206f776e657220697320746865207a65726f206160008201527f6464726573730000000000000000000000000000000000000000000000000000602082015250565b60006142d1602683613475565b91506142dc82614275565b604082019050919050565b60006020820190508181036000830152614300816142c4565b9050919050565b7f4552433732313a207472616e736665722066726f6d20696e636f72726563742060008201527f6f776e6572000000000000000000000000000000000000000000000000000000602082015250565b6000614363602583613475565b915061436e82614307565b604082019050919050565b6000602082019050818103600083015261439281614356565b9050919050565b7f4552433732313a207472616e7366657220746f20746865207a65726f2061646460008201527f7265737300000000000000000000000000000000000000000000000000000000602082015250565b60006143f5602483613475565b915061440082614399565b604082019050919050565b60006020820190508181036000830152614424816143e8565b9050919050565b600061443682613525565b915061444183613525565b92508282101561445457614453613cc4565b5b828203905092915050565b7f4f776e61626c653a2063616c6c6572206973206e6f7420746865206f776e6572600082015250565b6000614495602083613475565b91506144a08261445f565b602082019050919050565b600060208201905081810360008301526144c481614488565b9050919050565b7f6e6f7420746f6461790000000000000000000000000000000000000000000000600082015250565b6000614501600983613475565b915061450c826144cb565b602082019050919050565b60006020820190508181036000830152614530816144f4565b9050919050565b7f4552433732313a20617070726f766520746f2063616c6c657200000000000000600082015250565b600061456d601983613475565b915061457882614537565b602082019050919050565b6000602082019050818103600083015261459c81614560565b9050919050565b7f4552433732313a207472616e7366657220746f206e6f6e20455243373231526560008201527f63656976657220696d706c656d656e7465720000000000000000000000000000602082015250565b60006145ff603283613475565b915061460a826145a3565b604082019050919050565b6000602082019050818103600083015261462e816145f2565b9050919050565b7f4e487b7100000000000000000000000000000000000000000000000000000000600052601260045260246000fd5b600061466f82613525565b915061467a83613525565b92508261468a57614689614635565b5b828204905092915050565b60006146a082613525565b91506146ab83613525565b9250826146bb576146ba614635565b5b828206905092915050565b7f4552433732313a206d696e7420746f20746865207a65726f2061646472657373600082015250565b60006146fc602083613475565b9150614707826146c6565b602082019050919050565b6000602082019050818103600083015261472b816146ef565b9050919050565b7f4552433732313a20746f6b656e20616c7265616479206d696e74656400000000600082015250565b6000614768601c83613475565b915061477382614732565b602082019050919050565b600060208201905081810360008301526147978161475b565b9050919050565b6000815190506147ad816133db565b92915050565b6000602082840312156147c9576147c86133a5565b5b60006147d78482850161479e565b91505092915050565b600081519050919050565b600082825260208201905092915050565b6000614807826147e0565b61481181856147eb565b9350614821818560208601613486565b61482a816134b9565b840191505092915050565b600060808201905061484a60008301876135ba565b61485760208301866135ba565b61486460408301856137f0565b818103606083015261487681846147fc565b90509594505050505056fea264697066735822122036ee5184666afcb4a26468ac19b6a6cd4261398b1c64e648cc0bf57b70f4ec4064736f6c63430008090033",
  "linkReferences": {},
  "deployedLinkReferences": {}
}