{
  "_format": "hh-sol-artifact-1",
  "contractName": "CarMint",
  "sourceName": "contracts/carContract.sol",
  "abi": [
    {
      "inputs": [
        {
          "internalType": "string",
          "name": "_name",
          "type": "string"
        },
        {
          "internalType": "string",
          "name": "_symbol",
          "type": "string"
        }
      ],
      "stateMutability": "nonpayable",
      "type": "constructor"
    },
    {
      "anonymous": false,
      "inputs": [
        {
          "indexed": true,
          "internalType": "address",
          "name": "owner",
          "type": "address"
        },
        {
          "indexed": true,
          "internalType": "address",
          "name": "approved",
          "type": "address"
        },
        {
          "indexed": true,
          "internalType": "uint256",
          "name": "tokenId",
          "type": "uint256"
        }
      ],
      "name": "Approval",
      "type": "event"
    },
    {
      "anonymous": false,
      "inputs": [
        {
          "indexed": true,
          "internalType": "address",
          "name": "owner",
          "type": "address"
        },
        {
          "indexed": true,
          "internalType": "address",
          "name": "operator",
          "type": "address"
        },
        {
          "indexed": false,
          "internalType": "bool",
          "name": "approved",
          "type": "bool"
        }
      ],
      "name": "ApprovalForAll",
      "type": "event"
    },
    {
      "anonymous": false,
      "inputs": [
        {
          "indexed": true,
          "internalType": "address",
          "name": "previousOwner",
          "type": "address"
        },
        {
          "indexed": true,
          "internalType": "address",
          "name": "newOwner",
          "type": "address"
        }
      ],
      "name": "OwnershipTransferred",
      "type": "event"
    },
    {
      "anonymous": false,
      "inputs": [
        {
          "indexed": true,
          "internalType": "address",
          "name": "from",
          "type": "address"
        },
        {
          "indexed": true,
          "internalType": "address",
          "name": "to",
          "type": "address"
        },
        {
          "indexed": true,
          "internalType": "uint256",
          "name": "tokenId",
          "type": "uint256"
        }
      ],
      "name": "Transfer",
      "type": "event"
    },
    {
      "anonymous": false,
      "inputs": [
        {
          "indexed": false,
          "internalType": "uint256",
          "name": "id",
          "type": "uint256"
        },
        {
          "indexed": false,
          "internalType": "uint256",
          "name": "randNum",
          "type": "uint256"
        }
      ],
      "name": "minted",
      "type": "event"
    },
    {
      "anonymous": false,
      "inputs": [
        {
          "indexed": false,
          "internalType": "address",
          "name": "user",
          "type": "address"
        }
      ],
      "name": "payedFee",
      "type": "event"
    },
    {
      "inputs": [
        {
          "internalType": "address",
          "name": "_add",
          "type": "address"
        },
        {
          "internalType": "uint256",
          "name": "_rand",
          "type": "uint256"
        }
      ],
      "name": "_minting",
      "outputs": [],
      "stateMutability": "nonpayable",
      "type": "function"
    },
    {
      "inputs": [
        {
          "internalType": "address",
          "name": "to",
          "type": "address"
        },
        {
          "internalType": "uint256",
          "name": "tokenId",
          "type": "uint256"
        }
      ],
      "name": "approve",
      "outputs": [],
      "stateMutability": "nonpayable",
      "type": "function"
    },
    {
      "inputs": [
        {
          "internalType": "address",
          "name": "owner",
          "type": "address"
        }
      ],
      "name": "balanceOf",
      "outputs": [
        {
          "internalType": "uint256",
          "name": "",
          "type": "uint256"
        }
      ],
      "stateMutability": "view",
      "type": "function"
    },
    {
      "inputs": [],
      "name": "brainPrice",
      "outputs": [
        {
          "internalType": "uint256",
          "name": "",
          "type": "uint256"
        }
      ],
      "stateMutability": "view",
      "type": "function"
    },
    {
      "inputs": [],
      "name": "brainTest",
      "outputs": [
        {
          "internalType": "uint256",
          "name": "",
          "type": "uint256"
        }
      ],
      "stateMutability": "view",
      "type": "function"
    },
    {
      "inputs": [
        {
          "internalType": "uint256",
          "name": "",
          "type": "uint256"
        }
      ],
      "name": "cars",
      "outputs": [
        {
          "internalType": "uint256",
          "name": "rairty",
          "type": "uint256"
        },
        {
          "internalType": "uint256",
          "name": "cap",
          "type": "uint256"
        },
        {
          "internalType": "uint256",
          "name": "counter",
          "type": "uint256"
        },
        {
          "internalType": "bool",
          "name": "inCrew",
          "type": "bool"
        }
      ],
      "stateMutability": "view",
      "type": "function"
    },
    {
      "inputs": [
        {
          "internalType": "uint256",
          "name": "tokenId",
          "type": "uint256"
        }
      ],
      "name": "getApproved",
      "outputs": [
        {
          "internalType": "address",
          "name": "",
          "type": "address"
        }
      ],
      "stateMutability": "view",
      "type": "function"
    },
    {
      "inputs": [
        {
          "internalType": "uint256",
          "name": "_id",
          "type": "uint256"
        }
      ],
      "name": "getCapOfCarById",
      "outputs": [
        {
          "internalType": "uint256",
          "name": "",
          "type": "uint256"
        }
      ],
      "stateMutability": "view",
      "type": "function"
    },
    {
      "inputs": [
        {
          "internalType": "uint256",
          "name": "_id",
          "type": "uint256"
        }
      ],
      "name": "getCrewStatus",
      "outputs": [
        {
          "internalType": "bool",
          "name": "",
          "type": "bool"
        }
      ],
      "stateMutability": "view",
      "type": "function"
    },
    {
      "inputs": [
        {
          "internalType": "address",
          "name": "",
          "type": "address"
        }
      ],
      "name": "howMany",
      "outputs": [
        {
          "internalType": "uint256",
          "name": "",
          "type": "uint256"
        }
      ],
      "stateMutability": "view",
      "type": "function"
    },
    {
      "inputs": [
        {
          "internalType": "uint256",
          "name": "",
          "type": "uint256"
        }
      ],
      "name": "idOwner",
      "outputs": [
        {
          "internalType": "address",
          "name": "",
          "type": "address"
        }
      ],
      "stateMutability": "view",
      "type": "function"
    },
    {
      "inputs": [
        {
          "internalType": "address",
          "name": "owner",
          "type": "address"
        },
        {
          "internalType": "address",
          "name": "operator",
          "type": "address"
        }
      ],
      "name": "isApprovedForAll",
      "outputs": [
        {
          "internalType": "bool",
          "name": "",
          "type": "bool"
        }
      ],
      "stateMutability": "view",
      "type": "function"
    },
    {
      "inputs": [],
      "name": "mintFree",
      "outputs": [],
      "stateMutability": "nonpayable",
      "type": "function"
    },
    {
      "inputs": [
        {
          "internalType": "address",
          "name": "",
          "type": "address"
        }
      ],
      "name": "mintStatus",
      "outputs": [
        {
          "internalType": "bool",
          "name": "",
          "type": "bool"
        }
      ],
      "stateMutability": "view",
      "type": "function"
    },
    {
      "inputs": [],
      "name": "name",
      "outputs": [
        {
          "internalType": "string",
          "name": "",
          "type": "string"
        }
      ],
      "stateMutability": "view",
      "type": "function"
    },
    {
      "inputs": [],
      "name": "owner",
      "outputs": [
        {
          "internalType": "address",
          "name": "",
          "type": "address"
        }
      ],
      "stateMutability": "view",
      "type": "function"
    },
    {
      "inputs": [
        {
          "internalType": "uint256",
          "name": "tokenId",
          "type": "uint256"
        }
      ],
      "name": "ownerOf",
      "outputs": [
        {
          "internalType": "address",
          "name": "",
          "type": "address"
        }
      ],
      "stateMutability": "view",
      "type": "function"
    },
    {
      "inputs": [
        {
          "internalType": "uint256",
          "name": "_id",
          "type": "uint256"
        },
        {
          "internalType": "address",
          "name": "_add",
          "type": "address"
        }
      ],
      "name": "ownerOfId",
      "outputs": [
        {
          "internalType": "bool",
          "name": "",
          "type": "bool"
        }
      ],
      "stateMutability": "view",
      "type": "function"
    },
    {
      "inputs": [],
      "name": "payWithBr",
      "outputs": [],
      "stateMutability": "payable",
      "type": "function"
    },
    {
      "inputs": [],
      "name": "renounceOwnership",
      "outputs": [],
      "stateMutability": "nonpayable",
      "type": "function"
    },
    {
      "inputs": [
        {
          "internalType": "address",
          "name": "from",
          "type": "address"
        },
        {
          "internalType": "address",
          "name": "to",
          "type": "address"
        },
        {
          "internalType": "uint256",
          "name": "tokenId",
          "type": "uint256"
        }
      ],
      "name": "safeTransferFrom",
      "outputs": [],
      "stateMutability": "nonpayable",
      "type": "function"
    },
    {
      "inputs": [
        {
          "internalType": "address",
          "name": "from",
          "type": "address"
        },
        {
          "internalType": "address",
          "name": "to",
          "type": "address"
        },
        {
          "internalType": "uint256",
          "name": "tokenId",
          "type": "uint256"
        },
        {
          "internalType": "bytes",
          "name": "data",
          "type": "bytes"
        }
      ],
      "name": "safeTransferFrom",
      "outputs": [],
      "stateMutability": "nonpayable",
      "type": "function"
    },
    {
      "inputs": [
        {
          "internalType": "address",
          "name": "operator",
          "type": "address"
        },
        {
          "internalType": "bool",
          "name": "approved",
          "type": "bool"
        }
      ],
      "name": "setApprovalForAll",
      "outputs": [],
      "stateMutability": "nonpayable",
      "type": "function"
    },
    {
      "inputs": [
        {
          "internalType": "uint256",
          "name": "_id",
          "type": "uint256"
        }
      ],
      "name": "setCarCrew",
      "outputs": [],
      "stateMutability": "nonpayable",
      "type": "function"
    },
    {
      "inputs": [
        {
          "internalType": "address",
          "name": "_add",
          "type": "address"
        }
      ],
      "name": "setCombine2",
      "outputs": [],
      "stateMutability": "nonpayable",
      "type": "function"
    },
    {
      "inputs": [
        {
          "internalType": "address",
          "name": "_add",
          "type": "address"
        }
      ],
      "name": "setOracleAddress",
      "outputs": [],
      "stateMutability": "nonpayable",
      "type": "function"
    },
    {
      "inputs": [
        {
          "internalType": "address",
          "name": "_add",
          "type": "address"
        }
      ],
      "name": "setPacoCoin",
      "outputs": [],
      "stateMutability": "nonpayable",
      "type": "function"
    },
    {
      "inputs": [
        {
          "internalType": "bytes4",
          "name": "interfaceId",
          "type": "bytes4"
        }
      ],
      "name": "supportsInterface",
      "outputs": [
        {
          "internalType": "bool",
          "name": "",
          "type": "bool"
        }
      ],
      "stateMutability": "view",
      "type": "function"
    },
    {
      "inputs": [],
      "name": "symbol",
      "outputs": [
        {
          "internalType": "string",
          "name": "",
          "type": "string"
        }
      ],
      "stateMutability": "view",
      "type": "function"
    },
    {
      "inputs": [
        {
          "internalType": "uint256",
          "name": "tokenId",
          "type": "uint256"
        }
      ],
      "name": "tokenURI",
      "outputs": [
        {
          "internalType": "string",
          "name": "",
          "type": "string"
        }
      ],
      "stateMutability": "view",
      "type": "function"
    },
    {
      "inputs": [
        {
          "internalType": "address",
          "name": "from",
          "type": "address"
        },
        {
          "internalType": "address",
          "name": "to",
          "type": "address"
        },
        {
          "internalType": "uint256",
          "name": "tokenId",
          "type": "uint256"
        }
      ],
      "name": "transferFrom",
      "outputs": [],
      "stateMutability": "nonpayable",
      "type": "function"
    },
    {
      "inputs": [
        {
          "internalType": "address",
          "name": "newOwner",
          "type": "address"
        }
      ],
      "name": "transferOwnership",
      "outputs": [],
      "stateMutability": "nonpayable",
      "type": "function"
    }
  ],
  "bytecode": "0x60806040526000600f556101906011553480156200001c57600080fd5b5060405162004301380380620043018339818101604052810190620000429190620003b9565b81816200006462000058620000a060201b60201c565b620000a860201b60201c565b81600190805190602001906200007c9291906200016c565b508060029080519060200190620000959291906200016c565b5050505050620004a3565b600033905090565b60008060009054906101000a900473ffffffffffffffffffffffffffffffffffffffff169050816000806101000a81548173ffffffffffffffffffffffffffffffffffffffff021916908373ffffffffffffffffffffffffffffffffffffffff1602179055508173ffffffffffffffffffffffffffffffffffffffff168173ffffffffffffffffffffffffffffffffffffffff167f8be0079c531659141344cd1fd0a4f28419497f9722a3daafe3b4186f6b6457e060405160405180910390a35050565b8280546200017a906200046d565b90600052602060002090601f0160209004810192826200019e5760008555620001ea565b82601f10620001b957805160ff1916838001178555620001ea565b82800160010185558215620001ea579182015b82811115620001e9578251825591602001919060010190620001cc565b5b509050620001f99190620001fd565b5090565b5b8082111562000218576000816000905550600101620001fe565b5090565b6000604051905090565b600080fd5b600080fd5b600080fd5b600080fd5b6000601f19601f8301169050919050565b7f4e487b7100000000000000000000000000000000000000000000000000000000600052604160045260246000fd5b62000285826200023a565b810181811067ffffffffffffffff82111715620002a757620002a66200024b565b5b80604052505050565b6000620002bc6200021c565b9050620002ca82826200027a565b919050565b600067ffffffffffffffff821115620002ed57620002ec6200024b565b5b620002f8826200023a565b9050602081019050919050565b60005b838110156200032557808201518184015260208101905062000308565b8381111562000335576000848401525b50505050565b6000620003526200034c84620002cf565b620002b0565b90508281526020810184848401111562000371576200037062000235565b5b6200037e84828562000305565b509392505050565b600082601f8301126200039e576200039d62000230565b5b8151620003b08482602086016200033b565b91505092915050565b60008060408385031215620003d357620003d262000226565b5b600083015167ffffffffffffffff811115620003f457620003f36200022b565b5b620004028582860162000386565b925050602083015167ffffffffffffffff8111156200042657620004256200022b565b5b620004348582860162000386565b9150509250929050565b7f4e487b7100000000000000000000000000000000000000000000000000000000600052602260045260246000fd5b600060028204905060018216806200048657607f821691505b602082108114156200049d576200049c6200043e565b5b50919050565b613e4e80620004b36000396000f3fe6080604052600436106101e35760003560e01c806370a0823111610102578063b88d4fde11610095578063e7e9185311610064578063e7e9185314610707578063e985e9c514610730578063f2fde38b1461076d578063f7746e3614610796576101e3565b8063b88d4fde1461065a578063bf3fd6ce14610683578063c87b56dd146106c0578063d7e2d104146106fd576101e3565b80638da5cb5b116100d15780638da5cb5b146105b257806395d89b41146105dd578063a0f2a36614610608578063a22cb46514610631576101e3565b806370a082311461050a578063715018a61461054757806374945b731461055e5780638ab534471461059b576101e3565b80633456ca6e1161017a5780634c69c00f116101495780634c69c00f1461042a578063602977ad146104535780636352211e146104905780636fcf0030146104cd576101e3565b80633456ca6e1461038457806342842e0e146103af578063458aa7fb146103d85780634b355cfa14610401576101e3565b80630d26634a116101b65780630d26634a146102b65780630deab810146102f357806323b872dd1461033057806330e9a68e14610359576101e3565b806301ffc9a7146101e857806306fdde0314610225578063081812fc14610250578063095ea7b31461028d575b600080fd5b3480156101f457600080fd5b5061020f600480360381019061020a9190612a39565b6107d6565b60405161021c9190612a81565b60405180910390f35b34801561023157600080fd5b5061023a6108b8565b6040516102479190612b35565b60405180910390f35b34801561025c57600080fd5b5061027760048036038101906102729190612b8d565b61094a565b6040516102849190612bfb565b60405180910390f35b34801561029957600080fd5b506102b460048036038101906102af9190612c42565b610990565b005b3480156102c257600080fd5b506102dd60048036038101906102d89190612b8d565b610aa8565b6040516102ea9190612a81565b60405180910390f35b3480156102ff57600080fd5b5061031a60048036038101906103159190612c82565b610ae4565b6040516103279190612a81565b60405180910390f35b34801561033c57600080fd5b5061035760048036038101906103529190612caf565b610b04565b005b34801561036557600080fd5b5061036e610b64565b60405161037b9190612d11565b60405180910390f35b34801561039057600080fd5b50610399610b6a565b6040516103a69190612d11565b60405180910390f35b3480156103bb57600080fd5b506103d660048036038101906103d19190612caf565b610b70565b005b3480156103e457600080fd5b506103ff60048036038101906103fa9190612c82565b610b90565b005b34801561040d57600080fd5b5061042860048036038101906104239190612c82565b610c1d565b005b34801561043657600080fd5b50610451600480360381019061044c9190612c82565b610caa565b005b34801561045f57600080fd5b5061047a60048036038101906104759190612c82565b610cf6565b6040516104879190612d11565b60405180910390f35b34801561049c57600080fd5b506104b760048036038101906104b29190612b8d565b610d0e565b6040516104c49190612bfb565b60405180910390f35b3480156104d957600080fd5b506104f460048036038101906104ef9190612b8d565b610dc0565b6040516105019190612d11565b60405180910390f35b34801561051657600080fd5b50610531600480360381019061052c9190612c82565b610df4565b60405161053e9190612d11565b60405180910390f35b34801561055357600080fd5b5061055c610eac565b005b34801561056a57600080fd5b5061058560048036038101906105809190612d2c565b610ec0565b6040516105929190612a81565b60405180910390f35b3480156105a757600080fd5b506105b0610f2c565b005b3480156105be57600080fd5b506105c76110cf565b6040516105d49190612bfb565b60405180910390f35b3480156105e957600080fd5b506105f26110f8565b6040516105ff9190612b35565b60405180910390f35b34801561061457600080fd5b5061062f600480360381019061062a9190612c42565b61118a565b005b34801561063d57600080fd5b5061065860048036038101906106539190612d98565b6113f8565b005b34801561066657600080fd5b50610681600480360381019061067c9190612f0d565b61140e565b005b34801561068f57600080fd5b506106aa60048036038101906106a59190612b8d565b611470565b6040516106b79190612bfb565b60405180910390f35b3480156106cc57600080fd5b506106e760048036038101906106e29190612b8d565b6114a3565b6040516106f49190612b35565b60405180910390f35b61070561150b565b005b34801561071357600080fd5b5061072e60048036038101906107299190612b8d565b61182f565b005b34801561073c57600080fd5b5061075760048036038101906107529190612f90565b611932565b6040516107649190612a81565b60405180910390f35b34801561077957600080fd5b50610794600480360381019061078f9190612c82565b6119c6565b005b3480156107a257600080fd5b506107bd60048036038101906107b89190612b8d565b611a4a565b6040516107cd9493929190612fd0565b60405180910390f35b60007f80ac58cd000000000000000000000000000000000000000000000000000000007bffffffffffffffffffffffffffffffffffffffffffffffffffffffff1916827bffffffffffffffffffffffffffffffffffffffffffffffffffffffff191614806108a157507f5b5e139f000000000000000000000000000000000000000000000000000000007bffffffffffffffffffffffffffffffffffffffffffffffffffffffff1916827bffffffffffffffffffffffffffffffffffffffffffffffffffffffff1916145b806108b157506108b082611a97565b5b9050919050565b6060600180546108c790613044565b80601f01602080910402602001604051908101604052809291908181526020018280546108f390613044565b80156109405780601f1061091557610100808354040283529160200191610940565b820191906000526020600020905b81548152906001019060200180831161092357829003601f168201915b5050505050905090565b600061095582611b01565b6005600083815260200190815260200160002060009054906101000a900473ffffffffffffffffffffffffffffffffffffffff169050919050565b600061099b82610d0e565b90508073ffffffffffffffffffffffffffffffffffffffff168373ffffffffffffffffffffffffffffffffffffffff161415610a0c576040517f08c379a0000000000000000000000000000000000000000000000000000000008152600401610a03906130e8565b60405180910390fd5b8073ffffffffffffffffffffffffffffffffffffffff16610a2b611b4c565b73ffffffffffffffffffffffffffffffffffffffff161480610a5a5750610a5981610a54611b4c565b611932565b5b610a99576040517f08c379a0000000000000000000000000000000000000000000000000000000008152600401610a909061317a565b60405180910390fd5b610aa38383611b54565b505050565b6000600b8281548110610abe57610abd61319a565b5b906000526020600020906004020160030160009054906101000a900460ff169050919050565b600e6020528060005260406000206000915054906101000a900460ff1681565b610b15610b0f611b4c565b82611c0d565b610b54576040517f08c379a0000000000000000000000000000000000000000000000000000000008152600401610b4b9061323b565b60405180910390fd5b610b5f838383611ca2565b505050565b60105481565b60115481565b610b8b8383836040518060200160405280600081525061140e565b505050565b610b98611f09565b80600760006101000a81548173ffffffffffffffffffffffffffffffffffffffff021916908373ffffffffffffffffffffffffffffffffffffffff16021790555080600860006101000a81548173ffffffffffffffffffffffffffffffffffffffff021916908373ffffffffffffffffffffffffffffffffffffffff16021790555050565b610c25611f09565b80600960006101000a81548173ffffffffffffffffffffffffffffffffffffffff021916908373ffffffffffffffffffffffffffffffffffffffff16021790555080600a60006101000a81548173ffffffffffffffffffffffffffffffffffffffff021916908373ffffffffffffffffffffffffffffffffffffffff16021790555050565b610cb2611f09565b80601260006101000a81548173ffffffffffffffffffffffffffffffffffffffff021916908373ffffffffffffffffffffffffffffffffffffffff16021790555050565b600d6020528060005260406000206000915090505481565b6000806003600084815260200190815260200160002060009054906101000a900473ffffffffffffffffffffffffffffffffffffffff169050600073ffffffffffffffffffffffffffffffffffffffff168173ffffffffffffffffffffffffffffffffffffffff161415610db7576040517f08c379a0000000000000000000000000000000000000000000000000000000008152600401610dae906132a7565b60405180910390fd5b80915050919050565b600080600b8381548110610dd757610dd661319a565b5b906000526020600020906004020160010154905080915050919050565b60008073ffffffffffffffffffffffffffffffffffffffff168273ffffffffffffffffffffffffffffffffffffffff161415610e65576040517f08c379a0000000000000000000000000000000000000000000000000000000008152600401610e5c90613339565b60405180910390fd5b600460008373ffffffffffffffffffffffffffffffffffffffff1673ffffffffffffffffffffffffffffffffffffffff168152602001908152602001600020549050919050565b610eb4611f09565b610ebe6000611f87565b565b60008173ffffffffffffffffffffffffffffffffffffffff16600c600085815260200190815260200160002060009054906101000a900473ffffffffffffffffffffffffffffffffffffffff1673ffffffffffffffffffffffffffffffffffffffff1614905092915050565b60006040518060800160405280600181526020016002815260200160018152602001600015158152509050600b81908060018154018082558091505060019003906000526020600020906004020160009091909190915060008201518160000155602082015181600101556040820151816002015560608201518160030160006101000a81548160ff0219169083151502179055505050610fcf33600f5461204b565b33600c6000600f54815260200190815260200160002060006101000a81548173ffffffffffffffffffffffffffffffffffffffff021916908373ffffffffffffffffffffffffffffffffffffffff160217905550600d60003373ffffffffffffffffffffffffffffffffffffffff1673ffffffffffffffffffffffffffffffffffffffff168152602001908152602001600020600081548092919061107390613388565b91905055507fdbe82851b2d09154f664d67cc6e17ef02f33aeacacff618708655761a1ec71b5600f5460016040516110ac929190613416565b60405180910390a1600f60008154809291906110c790613388565b919050555050565b60008060009054906101000a900473ffffffffffffffffffffffffffffffffffffffff16905090565b60606002805461110790613044565b80601f016020809104026020016040519081016040528092919081815260200182805461113390613044565b80156111805780601f1061115557610100808354040283529160200191611180565b820191906000526020600020905b81548152906001019060200180831161116357829003601f168201915b5050505050905090565b601260009054906101000a900473ffffffffffffffffffffffffffffffffffffffff1673ffffffffffffffffffffffffffffffffffffffff163373ffffffffffffffffffffffffffffffffffffffff16146111e457600080fd5b6000600e60008473ffffffffffffffffffffffffffffffffffffffff1673ffffffffffffffffffffffffffffffffffffffff16815260200190815260200160002060006101000a81548160ff0219169083151502179055506000611247826120a4565b905060006040518060800160405280838152602001600184611269919061343f565b815260200160018152602001600015158152509050600b81908060018154018082558091505060019003906000526020600020906004020160009091909190915060008201518160000155602082015181600101556040820151816002015560608201518160030160006101000a81548160ff02191690831515021790555050506112f684600f5461204b565b83600c6000600f54815260200190815260200160002060006101000a81548173ffffffffffffffffffffffffffffffffffffffff021916908373ffffffffffffffffffffffffffffffffffffffff160217905550600d60008573ffffffffffffffffffffffffffffffffffffffff1673ffffffffffffffffffffffffffffffffffffffff168152602001908152602001600020600081548092919061139a90613388565b91905055507fdbe82851b2d09154f664d67cc6e17ef02f33aeacacff618708655761a1ec71b5600f54836040516113d2929190613495565b60405180910390a1600f60008154809291906113ed90613388565b919050555050505050565b61140a611403611b4c565b83836120e1565b5050565b61141f611419611b4c565b83611c0d565b61145e576040517f08c379a00000000000000000000000000000000000000000000000000000000081526004016114559061323b565b60405180910390fd5b61146a8484848461224e565b50505050565b600c6020528060005260406000206000915054906101000a900473ffffffffffffffffffffffffffffffffffffffff1681565b60606114ae82611b01565b60006114b86122aa565b905060008151116114d85760405180602001604052806000815250611503565b806114e2846122c1565b6040516020016114f39291906134fa565b6040516020818303038152906040525b915050919050565b601154600960009054906101000a900473ffffffffffffffffffffffffffffffffffffffff1673ffffffffffffffffffffffffffffffffffffffff1663dd62ed3e33306040518363ffffffff1660e01b815260040161156b92919061351e565b60206040518083038186803b15801561158357600080fd5b505afa158015611597573d6000803e3d6000fd5b505050506040513d601f19601f820116820180604052508101906115bb919061355c565b10156115fc576040517f08c379a00000000000000000000000000000000000000000000000000000000081526004016115f3906135d5565b60405180910390fd5b601154600960009054906101000a900473ffffffffffffffffffffffffffffffffffffffff1673ffffffffffffffffffffffffffffffffffffffff166370a08231336040518263ffffffff1660e01b815260040161165a9190612bfb565b60206040518083038186803b15801561167257600080fd5b505afa158015611686573d6000803e3d6000fd5b505050506040513d601f19601f820116820180604052508101906116aa919061355c565b10156116eb576040517f08c379a00000000000000000000000000000000000000000000000000000000081526004016116e290613641565b60405180910390fd5b6000670de0b6b3a76400006011546117039190613661565b9050600960009054906101000a900473ffffffffffffffffffffffffffffffffffffffff1673ffffffffffffffffffffffffffffffffffffffff166323b872dd3330846040518463ffffffff1660e01b8152600401611764939291906136bb565b602060405180830381600087803b15801561177e57600080fd5b505af1158015611792573d6000803e3d6000fd5b505050506040513d601f19601f820116820180604052508101906117b69190613707565b6117f5576040517f08c379a00000000000000000000000000000000000000000000000000000000081526004016117ec90613780565b60405180910390fd5b7f02d722ac2845ac725ffc246b20b5f066d4f7d54d9148fe2301987828bc72b6c3336040516118249190612bfb565b60405180910390a150565b600860009054906101000a900473ffffffffffffffffffffffffffffffffffffffff1673ffffffffffffffffffffffffffffffffffffffff163373ffffffffffffffffffffffffffffffffffffffff16146118bf576040517f08c379a00000000000000000000000000000000000000000000000000000000081526004016118b6906137ec565b60405180910390fd5b600b81815481106118d3576118d261319a565b5b906000526020600020906004020160030160009054906101000a900460ff1615600b82815481106119075761190661319a565b5b906000526020600020906004020160030160006101000a81548160ff02191690831515021790555050565b6000600660008473ffffffffffffffffffffffffffffffffffffffff1673ffffffffffffffffffffffffffffffffffffffff16815260200190815260200160002060008373ffffffffffffffffffffffffffffffffffffffff1673ffffffffffffffffffffffffffffffffffffffff16815260200190815260200160002060009054906101000a900460ff16905092915050565b6119ce611f09565b600073ffffffffffffffffffffffffffffffffffffffff168173ffffffffffffffffffffffffffffffffffffffff161415611a3e576040517f08c379a0000000000000000000000000000000000000000000000000000000008152600401611a359061387e565b60405180910390fd5b611a4781611f87565b50565b600b8181548110611a5a57600080fd5b90600052602060002090600402016000915090508060000154908060010154908060020154908060030160009054906101000a900460ff16905084565b60007f01ffc9a7000000000000000000000000000000000000000000000000000000007bffffffffffffffffffffffffffffffffffffffffffffffffffffffff1916827bffffffffffffffffffffffffffffffffffffffffffffffffffffffff1916149050919050565b611b0a81612422565b611b49576040517f08c379a0000000000000000000000000000000000000000000000000000000008152600401611b40906132a7565b60405180910390fd5b50565b600033905090565b816005600083815260200190815260200160002060006101000a81548173ffffffffffffffffffffffffffffffffffffffff021916908373ffffffffffffffffffffffffffffffffffffffff160217905550808273ffffffffffffffffffffffffffffffffffffffff16611bc783610d0e565b73ffffffffffffffffffffffffffffffffffffffff167f8c5be1e5ebec7d5bd14f71427d1e84f3dd0314c0f7b2291e5b200ac8c7c3b92560405160405180910390a45050565b600080611c1983610d0e565b90508073ffffffffffffffffffffffffffffffffffffffff168473ffffffffffffffffffffffffffffffffffffffff161480611c5b5750611c5a8185611932565b5b80611c9957508373ffffffffffffffffffffffffffffffffffffffff16611c818461094a565b73ffffffffffffffffffffffffffffffffffffffff16145b91505092915050565b8273ffffffffffffffffffffffffffffffffffffffff16611cc282610d0e565b73ffffffffffffffffffffffffffffffffffffffff1614611d18576040517f08c379a0000000000000000000000000000000000000000000000000000000008152600401611d0f90613910565b60405180910390fd5b600073ffffffffffffffffffffffffffffffffffffffff168273ffffffffffffffffffffffffffffffffffffffff161415611d88576040517f08c379a0000000000000000000000000000000000000000000000000000000008152600401611d7f906139a2565b60405180910390fd5b611d9383838361248e565b611d9e600082611b54565b6001600460008573ffffffffffffffffffffffffffffffffffffffff1673ffffffffffffffffffffffffffffffffffffffff1681526020019081526020016000206000828254611dee91906139c2565b925050819055506001600460008473ffffffffffffffffffffffffffffffffffffffff1673ffffffffffffffffffffffffffffffffffffffff1681526020019081526020016000206000828254611e45919061343f565b92505081905550816003600083815260200190815260200160002060006101000a81548173ffffffffffffffffffffffffffffffffffffffff021916908373ffffffffffffffffffffffffffffffffffffffff160217905550808273ffffffffffffffffffffffffffffffffffffffff168473ffffffffffffffffffffffffffffffffffffffff167fddf252ad1be2c89b69c2b068fc378daa952ba7f163c4a11628f55a4df523b3ef60405160405180910390a4611f04838383612493565b505050565b611f11611b4c565b73ffffffffffffffffffffffffffffffffffffffff16611f2f6110cf565b73ffffffffffffffffffffffffffffffffffffffff1614611f85576040517f08c379a0000000000000000000000000000000000000000000000000000000008152600401611f7c90613a42565b60405180910390fd5b565b60008060009054906101000a900473ffffffffffffffffffffffffffffffffffffffff169050816000806101000a81548173ffffffffffffffffffffffffffffffffffffffff021916908373ffffffffffffffffffffffffffffffffffffffff1602179055508173ffffffffffffffffffffffffffffffffffffffff168173ffffffffffffffffffffffffffffffffffffffff167f8be0079c531659141344cd1fd0a4f28419497f9722a3daafe3b4186f6b6457e060405160405180910390a35050565b6120558282612498565b61206160008383612672565b6120a0576040517f08c379a000000000000000000000000000000000000000000000000000000000815260040161209790613aae565b60405180910390fd5b5050565b600080604b83116120b857600190506120d8565b605f83116120c957600290506120d7565b605f83106120d657600390505b5b5b80915050919050565b8173ffffffffffffffffffffffffffffffffffffffff168373ffffffffffffffffffffffffffffffffffffffff161415612150576040517f08c379a000000000000000000000000000000000000000000000000000000000815260040161214790613b1a565b60405180910390fd5b80600660008573ffffffffffffffffffffffffffffffffffffffff1673ffffffffffffffffffffffffffffffffffffffff16815260200190815260200160002060008473ffffffffffffffffffffffffffffffffffffffff1673ffffffffffffffffffffffffffffffffffffffff16815260200190815260200160002060006101000a81548160ff0219169083151502179055508173ffffffffffffffffffffffffffffffffffffffff168373ffffffffffffffffffffffffffffffffffffffff167f17307eab39ab6107e8899845ad3d59bd9653f200f220920489ca2b5937696c31836040516122419190612a81565b60405180910390a3505050565b612259848484611ca2565b612265848484846127f0565b6122a4576040517f08c379a000000000000000000000000000000000000000000000000000000000815260040161229b90613bac565b60405180910390fd5b50505050565b606060405180602001604052806000815250905090565b60606000821415612309576040518060400160405280600181526020017f3000000000000000000000000000000000000000000000000000000000000000815250905061241d565b600082905060005b6000821461233b57808061232490613388565b915050600a826123349190613bfb565b9150612311565b60008167ffffffffffffffff81111561235757612356612de2565b5b6040519080825280601f01601f1916602001820160405280156123895781602001600182028036833780820191505090505b5090505b60008514612416576001826123a291906139c2565b9150600a856123b19190613c2c565b60306123bd919061343f565b60f81b8183815181106123d3576123d261319a565b5b60200101907effffffffffffffffffffffffffffffffffffffffffffffffffffffffffffff1916908160001a905350600a8561240f9190613bfb565b945061238d565b8093505050505b919050565b60008073ffffffffffffffffffffffffffffffffffffffff166003600084815260200190815260200160002060009054906101000a900473ffffffffffffffffffffffffffffffffffffffff1673ffffffffffffffffffffffffffffffffffffffff1614159050919050565b505050565b505050565b600073ffffffffffffffffffffffffffffffffffffffff168273ffffffffffffffffffffffffffffffffffffffff161415612508576040517f08c379a00000000000000000000000000000000000000000000000000000000081526004016124ff90613ca9565b60405180910390fd5b61251181612422565b15612551576040517f08c379a000000000000000000000000000000000000000000000000000000000815260040161254890613d15565b60405180910390fd5b61255d6000838361248e565b6001600460008473ffffffffffffffffffffffffffffffffffffffff1673ffffffffffffffffffffffffffffffffffffffff16815260200190815260200160002060008282546125ad919061343f565b92505081905550816003600083815260200190815260200160002060006101000a81548173ffffffffffffffffffffffffffffffffffffffff021916908373ffffffffffffffffffffffffffffffffffffffff160217905550808273ffffffffffffffffffffffffffffffffffffffff16600073ffffffffffffffffffffffffffffffffffffffff167fddf252ad1be2c89b69c2b068fc378daa952ba7f163c4a11628f55a4df523b3ef60405160405180910390a461266e60008383612493565b5050565b600061267d83612987565b156127e4578273ffffffffffffffffffffffffffffffffffffffff1663eeafbddc6126a6611b4c565b86856040518463ffffffff1660e01b81526004016126c6939291906136bb565b602060405180830381600087803b1580156126e057600080fd5b505af192505050801561271157506040513d601f19601f8201168201806040525081019061270e9190613d4a565b60015b612794573d8060008114612741576040519150601f19603f3d011682016040523d82523d6000602084013e612746565b606091505b5060008151141561278c576040517f08c379a000000000000000000000000000000000000000000000000000000000815260040161278390613bac565b60405180910390fd5b805181602001fd5b63150b7a0260e01b7bffffffffffffffffffffffffffffffffffffffffffffffffffffffff1916817bffffffffffffffffffffffffffffffffffffffffffffffffffffffff1916149150506127e9565b600190505b9392505050565b60006128118473ffffffffffffffffffffffffffffffffffffffff166129aa565b1561297a578373ffffffffffffffffffffffffffffffffffffffff1663150b7a0261283a611b4c565b8786866040518563ffffffff1660e01b815260040161285c9493929190613dcc565b602060405180830381600087803b15801561287657600080fd5b505af19250505080156128a757506040513d601f19601f820116820180604052508101906128a49190613d4a565b60015b61292a573d80600081146128d7576040519150601f19603f3d011682016040523d82523d6000602084013e6128dc565b606091505b50600081511415612922576040517f08c379a000000000000000000000000000000000000000000000000000000000815260040161291990613bac565b60405180910390fd5b805181602001fd5b63150b7a0260e01b7bffffffffffffffffffffffffffffffffffffffffffffffffffffffff1916817bffffffffffffffffffffffffffffffffffffffffffffffffffffffff19161491505061297f565b600190505b949350505050565b6000808273ffffffffffffffffffffffffffffffffffffffff163b119050919050565b6000808273ffffffffffffffffffffffffffffffffffffffff163b119050919050565b6000604051905090565b600080fd5b600080fd5b60007fffffffff0000000000000000000000000000000000000000000000000000000082169050919050565b612a16816129e1565b8114612a2157600080fd5b50565b600081359050612a3381612a0d565b92915050565b600060208284031215612a4f57612a4e6129d7565b5b6000612a5d84828501612a24565b91505092915050565b60008115159050919050565b612a7b81612a66565b82525050565b6000602082019050612a966000830184612a72565b92915050565b600081519050919050565b600082825260208201905092915050565b60005b83811015612ad6578082015181840152602081019050612abb565b83811115612ae5576000848401525b50505050565b6000601f19601f8301169050919050565b6000612b0782612a9c565b612b118185612aa7565b9350612b21818560208601612ab8565b612b2a81612aeb565b840191505092915050565b60006020820190508181036000830152612b4f8184612afc565b905092915050565b6000819050919050565b612b6a81612b57565b8114612b7557600080fd5b50565b600081359050612b8781612b61565b92915050565b600060208284031215612ba357612ba26129d7565b5b6000612bb184828501612b78565b91505092915050565b600073ffffffffffffffffffffffffffffffffffffffff82169050919050565b6000612be582612bba565b9050919050565b612bf581612bda565b82525050565b6000602082019050612c106000830184612bec565b92915050565b612c1f81612bda565b8114612c2a57600080fd5b50565b600081359050612c3c81612c16565b92915050565b60008060408385031215612c5957612c586129d7565b5b6000612c6785828601612c2d565b9250506020612c7885828601612b78565b9150509250929050565b600060208284031215612c9857612c976129d7565b5b6000612ca684828501612c2d565b91505092915050565b600080600060608486031215612cc857612cc76129d7565b5b6000612cd686828701612c2d565b9350506020612ce786828701612c2d565b9250506040612cf886828701612b78565b9150509250925092565b612d0b81612b57565b82525050565b6000602082019050612d266000830184612d02565b92915050565b60008060408385031215612d4357612d426129d7565b5b6000612d5185828601612b78565b9250506020612d6285828601612c2d565b9150509250929050565b612d7581612a66565b8114612d8057600080fd5b50565b600081359050612d9281612d6c565b92915050565b60008060408385031215612daf57612dae6129d7565b5b6000612dbd85828601612c2d565b9250506020612dce85828601612d83565b9150509250929050565b600080fd5b600080fd5b7f4e487b7100000000000000000000000000000000000000000000000000000000600052604160045260246000fd5b612e1a82612aeb565b810181811067ffffffffffffffff82111715612e3957612e38612de2565b5b80604052505050565b6000612e4c6129cd565b9050612e588282612e11565b919050565b600067ffffffffffffffff821115612e7857612e77612de2565b5b612e8182612aeb565b9050602081019050919050565b82818337600083830152505050565b6000612eb0612eab84612e5d565b612e42565b905082815260208101848484011115612ecc57612ecb612ddd565b5b612ed7848285612e8e565b509392505050565b600082601f830112612ef457612ef3612dd8565b5b8135612f04848260208601612e9d565b91505092915050565b60008060008060808587031215612f2757612f266129d7565b5b6000612f3587828801612c2d565b9450506020612f4687828801612c2d565b9350506040612f5787828801612b78565b925050606085013567ffffffffffffffff811115612f7857612f776129dc565b5b612f8487828801612edf565b91505092959194509250565b60008060408385031215612fa757612fa66129d7565b5b6000612fb585828601612c2d565b9250506020612fc685828601612c2d565b9150509250929050565b6000608082019050612fe56000830187612d02565b612ff26020830186612d02565b612fff6040830185612d02565b61300c6060830184612a72565b95945050505050565b7f4e487b7100000000000000000000000000000000000000000000000000000000600052602260045260246000fd5b6000600282049050600182168061305c57607f821691505b602082108114156130705761306f613015565b5b50919050565b7f4552433732313a20617070726f76616c20746f2063757272656e74206f776e6560008201527f7200000000000000000000000000000000000000000000000000000000000000602082015250565b60006130d2602183612aa7565b91506130dd82613076565b604082019050919050565b60006020820190508181036000830152613101816130c5565b9050919050565b7f4552433732313a20617070726f76652063616c6c6572206973206e6f7420746f60008201527f6b656e206f776e6572206e6f7220617070726f76656420666f7220616c6c0000602082015250565b6000613164603e83612aa7565b915061316f82613108565b604082019050919050565b6000602082019050818103600083015261319381613157565b9050919050565b7f4e487b7100000000000000000000000000000000000000000000000000000000600052603260045260246000fd5b7f4552433732313a2063616c6c6572206973206e6f7420746f6b656e206f776e6560008201527f72206e6f7220617070726f766564000000000000000000000000000000000000602082015250565b6000613225602e83612aa7565b9150613230826131c9565b604082019050919050565b6000602082019050818103600083015261325481613218565b9050919050565b7f4552433732313a20696e76616c696420746f6b656e2049440000000000000000600082015250565b6000613291601883612aa7565b915061329c8261325b565b602082019050919050565b600060208201905081810360008301526132c081613284565b9050919050565b7f4552433732313a2061646472657373207a65726f206973206e6f74206120766160008201527f6c6964206f776e65720000000000000000000000000000000000000000000000602082015250565b6000613323602983612aa7565b915061332e826132c7565b604082019050919050565b6000602082019050818103600083015261335281613316565b9050919050565b7f4e487b7100000000000000000000000000000000000000000000000000000000600052601160045260246000fd5b600061339382612b57565b91507fffffffffffffffffffffffffffffffffffffffffffffffffffffffffffffffff8214156133c6576133c5613359565b5b600182019050919050565b6000819050919050565b6000819050919050565b60006134006133fb6133f6846133d1565b6133db565b612b57565b9050919050565b613410816133e5565b82525050565b600060408201905061342b6000830185612d02565b6134386020830184613407565b9392505050565b600061344a82612b57565b915061345583612b57565b9250827fffffffffffffffffffffffffffffffffffffffffffffffffffffffffffffffff0382111561348a57613489613359565b5b828201905092915050565b60006040820190506134aa6000830185612d02565b6134b76020830184612d02565b9392505050565b600081905092915050565b60006134d482612a9c565b6134de81856134be565b93506134ee818560208601612ab8565b80840191505092915050565b600061350682856134c9565b915061351282846134c9565b91508190509392505050565b60006040820190506135336000830185612bec565b6135406020830184612bec565b9392505050565b60008151905061355681612b61565b92915050565b600060208284031215613572576135716129d7565b5b600061358084828501613547565b91505092915050565b7f4e6f7420656e6f7567687420636f696e73206f7220616c6c6f77616e63652e00600082015250565b60006135bf601f83612aa7565b91506135ca82613589565b602082019050919050565b600060208201905081810360008301526135ee816135b2565b9050919050565b7f42616c616e6365206e6f7420656e6f756768742e000000000000000000000000600082015250565b600061362b601483612aa7565b9150613636826135f5565b602082019050919050565b6000602082019050818103600083015261365a8161361e565b9050919050565b600061366c82612b57565b915061367783612b57565b9250817fffffffffffffffffffffffffffffffffffffffffffffffffffffffffffffffff04831182151516156136b0576136af613359565b5b828202905092915050565b60006060820190506136d06000830186612bec565b6136dd6020830185612bec565b6136ea6040830184612d02565b949350505050565b60008151905061370181612d6c565b92915050565b60006020828403121561371d5761371c6129d7565b5b600061372b848285016136f2565b91505092915050565b7f5472616e73666572204661696c65642e00000000000000000000000000000000600082015250565b600061376a601083612aa7565b915061377582613734565b602082019050919050565b600060208201905081810360008301526137998161375d565b9050919050565b7f596f75206172656e74206120636f6e74726163742e0000000000000000000000600082015250565b60006137d6601583612aa7565b91506137e1826137a0565b602082019050919050565b60006020820190508181036000830152613805816137c9565b9050919050565b7f4f776e61626c653a206e6577206f776e657220697320746865207a65726f206160008201527f6464726573730000000000000000000000000000000000000000000000000000602082015250565b6000613868602683612aa7565b91506138738261380c565b604082019050919050565b600060208201905081810360008301526138978161385b565b9050919050565b7f4552433732313a207472616e736665722066726f6d20696e636f72726563742060008201527f6f776e6572000000000000000000000000000000000000000000000000000000602082015250565b60006138fa602583612aa7565b91506139058261389e565b604082019050919050565b60006020820190508181036000830152613929816138ed565b9050919050565b7f4552433732313a207472616e7366657220746f20746865207a65726f2061646460008201527f7265737300000000000000000000000000000000000000000000000000000000602082015250565b600061398c602483612aa7565b915061399782613930565b604082019050919050565b600060208201905081810360008301526139bb8161397f565b9050919050565b60006139cd82612b57565b91506139d883612b57565b9250828210156139eb576139ea613359565b5b828203905092915050565b7f4f776e61626c653a2063616c6c6572206973206e6f7420746865206f776e6572600082015250565b6000613a2c602083612aa7565b9150613a37826139f6565b602082019050919050565b60006020820190508181036000830152613a5b81613a1f565b9050919050565b7f6e6f7420746f6461790000000000000000000000000000000000000000000000600082015250565b6000613a98600983612aa7565b9150613aa382613a62565b602082019050919050565b60006020820190508181036000830152613ac781613a8b565b9050919050565b7f4552433732313a20617070726f766520746f2063616c6c657200000000000000600082015250565b6000613b04601983612aa7565b9150613b0f82613ace565b602082019050919050565b60006020820190508181036000830152613b3381613af7565b9050919050565b7f4552433732313a207472616e7366657220746f206e6f6e20455243373231526560008201527f63656976657220696d706c656d656e7465720000000000000000000000000000602082015250565b6000613b96603283612aa7565b9150613ba182613b3a565b604082019050919050565b60006020820190508181036000830152613bc581613b89565b9050919050565b7f4e487b7100000000000000000000000000000000000000000000000000000000600052601260045260246000fd5b6000613c0682612b57565b9150613c1183612b57565b925082613c2157613c20613bcc565b5b828204905092915050565b6000613c3782612b57565b9150613c4283612b57565b925082613c5257613c51613bcc565b5b828206905092915050565b7f4552433732313a206d696e7420746f20746865207a65726f2061646472657373600082015250565b6000613c93602083612aa7565b9150613c9e82613c5d565b602082019050919050565b60006020820190508181036000830152613cc281613c86565b9050919050565b7f4552433732313a20746f6b656e20616c7265616479206d696e74656400000000600082015250565b6000613cff601c83612aa7565b9150613d0a82613cc9565b602082019050919050565b60006020820190508181036000830152613d2e81613cf2565b9050919050565b600081519050613d4481612a0d565b92915050565b600060208284031215613d6057613d5f6129d7565b5b6000613d6e84828501613d35565b91505092915050565b600081519050919050565b600082825260208201905092915050565b6000613d9e82613d77565b613da88185613d82565b9350613db8818560208601612ab8565b613dc181612aeb565b840191505092915050565b6000608082019050613de16000830187612bec565b613dee6020830186612bec565b613dfb6040830185612d02565b8181036060830152613e0d8184613d93565b90509594505050505056fea264697066735822122068ccea28f9310c147011a6296ace046b5b31167c032e8b2199dbe2950ab2e7de64736f6c63430008090033",
  "linkReferences": {},
  "deployedLinkReferences": {}
}